{
  "contractName": "Mintango",
  "abi": [
    {
      "inputs": [],
      "stateMutability": "nonpayable",
      "type": "constructor"
    },
    {
      "anonymous": false,
      "inputs": [
        {
          "indexed": true,
          "internalType": "address",
          "name": "account",
          "type": "address"
        },
        {
          "indexed": true,
          "internalType": "address",
          "name": "operator",
          "type": "address"
        },
        {
          "indexed": false,
          "internalType": "bool",
          "name": "approved",
          "type": "bool"
        }
      ],
      "name": "ApprovalForAll",
      "type": "event"
    },
    {
      "anonymous": false,
      "inputs": [
        {
          "indexed": true,
          "internalType": "address",
          "name": "previousOwner",
          "type": "address"
        },
        {
          "indexed": true,
          "internalType": "address",
          "name": "newOwner",
          "type": "address"
        }
      ],
      "name": "OwnershipTransferred",
      "type": "event"
    },
    {
      "anonymous": false,
      "inputs": [
        {
          "indexed": true,
          "internalType": "address",
          "name": "operator",
          "type": "address"
        },
        {
          "indexed": true,
          "internalType": "address",
          "name": "from",
          "type": "address"
        },
        {
          "indexed": true,
          "internalType": "address",
          "name": "to",
          "type": "address"
        },
        {
          "indexed": false,
          "internalType": "uint256[]",
          "name": "ids",
          "type": "uint256[]"
        },
        {
          "indexed": false,
          "internalType": "uint256[]",
          "name": "values",
          "type": "uint256[]"
        }
      ],
      "name": "TransferBatch",
      "type": "event"
    },
    {
      "anonymous": false,
      "inputs": [
        {
          "indexed": true,
          "internalType": "address",
          "name": "operator",
          "type": "address"
        },
        {
          "indexed": true,
          "internalType": "address",
          "name": "from",
          "type": "address"
        },
        {
          "indexed": true,
          "internalType": "address",
          "name": "to",
          "type": "address"
        },
        {
          "indexed": false,
          "internalType": "uint256",
          "name": "id",
          "type": "uint256"
        },
        {
          "indexed": false,
          "internalType": "uint256",
          "name": "value",
          "type": "uint256"
        }
      ],
      "name": "TransferSingle",
      "type": "event"
    },
    {
      "anonymous": false,
      "inputs": [
        {
          "indexed": false,
          "internalType": "string",
          "name": "value",
          "type": "string"
        },
        {
          "indexed": true,
          "internalType": "uint256",
          "name": "id",
          "type": "uint256"
        }
      ],
      "name": "URI",
      "type": "event"
    },
    {
      "inputs": [
        {
          "internalType": "address",
          "name": "account",
          "type": "address"
        },
        {
          "internalType": "uint256",
          "name": "id",
          "type": "uint256"
        }
      ],
      "name": "balanceOf",
      "outputs": [
        {
          "internalType": "uint256",
          "name": "",
          "type": "uint256"
        }
      ],
      "stateMutability": "view",
      "type": "function",
      "constant": true
    },
    {
      "inputs": [
        {
          "internalType": "address[]",
          "name": "accounts",
          "type": "address[]"
        },
        {
          "internalType": "uint256[]",
          "name": "ids",
          "type": "uint256[]"
        }
      ],
      "name": "balanceOfBatch",
      "outputs": [
        {
          "internalType": "uint256[]",
          "name": "",
          "type": "uint256[]"
        }
      ],
      "stateMutability": "view",
      "type": "function",
      "constant": true
    },
    {
      "inputs": [
        {
          "internalType": "uint256",
          "name": "",
          "type": "uint256"
        },
        {
          "internalType": "address",
          "name": "",
          "type": "address"
        }
      ],
      "name": "downVoteAddresses",
      "outputs": [
        {
          "internalType": "bool",
          "name": "",
          "type": "bool"
        }
      ],
      "stateMutability": "view",
      "type": "function",
      "constant": true
    },
    {
      "inputs": [
        {
          "internalType": "uint256",
          "name": "",
          "type": "uint256"
        }
      ],
      "name": "downVoteCount",
      "outputs": [
        {
          "internalType": "uint256",
          "name": "",
          "type": "uint256"
        }
      ],
      "stateMutability": "view",
      "type": "function",
      "constant": true
    },
    {
      "inputs": [],
      "name": "fee",
      "outputs": [
        {
          "internalType": "uint256",
          "name": "",
          "type": "uint256"
        }
      ],
      "stateMutability": "view",
      "type": "function",
      "constant": true
    },
    {
      "inputs": [
        {
          "internalType": "string",
          "name": "",
          "type": "string"
        }
      ],
      "name": "idmap",
      "outputs": [
        {
          "internalType": "uint256",
          "name": "",
          "type": "uint256"
        }
      ],
      "stateMutability": "view",
      "type": "function",
      "constant": true
    },
    {
      "inputs": [
        {
          "internalType": "address",
          "name": "account",
          "type": "address"
        },
        {
          "internalType": "address",
          "name": "operator",
          "type": "address"
        }
      ],
      "name": "isApprovedForAll",
      "outputs": [
        {
          "internalType": "bool",
          "name": "",
          "type": "bool"
        }
      ],
      "stateMutability": "view",
      "type": "function",
      "constant": true
    },
    {
      "inputs": [
        {
          "internalType": "uint256",
          "name": "",
          "type": "uint256"
        }
      ],
      "name": "lookupmap",
      "outputs": [
        {
          "internalType": "string",
          "name": "",
          "type": "string"
        }
      ],
      "stateMutability": "view",
      "type": "function",
      "constant": true
    },
    {
      "inputs": [],
      "name": "owner",
      "outputs": [
        {
          "internalType": "address",
          "name": "",
          "type": "address"
        }
      ],
      "stateMutability": "view",
      "type": "function",
      "constant": true
    },
    {
      "inputs": [],
      "name": "renounceOwnership",
      "outputs": [],
      "stateMutability": "nonpayable",
      "type": "function"
    },
    {
      "inputs": [
        {
          "internalType": "address",
          "name": "from",
          "type": "address"
        },
        {
          "internalType": "address",
          "name": "to",
          "type": "address"
        },
        {
          "internalType": "uint256[]",
          "name": "ids",
          "type": "uint256[]"
        },
        {
          "internalType": "uint256[]",
          "name": "amounts",
          "type": "uint256[]"
        },
        {
          "internalType": "bytes",
          "name": "data",
          "type": "bytes"
        }
      ],
      "name": "safeBatchTransferFrom",
      "outputs": [],
      "stateMutability": "nonpayable",
      "type": "function"
    },
    {
      "inputs": [
        {
          "internalType": "address",
          "name": "from",
          "type": "address"
        },
        {
          "internalType": "address",
          "name": "to",
          "type": "address"
        },
        {
          "internalType": "uint256",
          "name": "id",
          "type": "uint256"
        },
        {
          "internalType": "uint256",
          "name": "amount",
          "type": "uint256"
        },
        {
          "internalType": "bytes",
          "name": "data",
          "type": "bytes"
        }
      ],
      "name": "safeTransferFrom",
      "outputs": [],
      "stateMutability": "nonpayable",
      "type": "function"
    },
    {
      "inputs": [
        {
          "internalType": "address",
          "name": "operator",
          "type": "address"
        },
        {
          "internalType": "bool",
          "name": "approved",
          "type": "bool"
        }
      ],
      "name": "setApprovalForAll",
      "outputs": [],
      "stateMutability": "nonpayable",
      "type": "function"
    },
    {
      "inputs": [
        {
          "internalType": "bytes4",
          "name": "interfaceId",
          "type": "bytes4"
        }
      ],
      "name": "supportsInterface",
      "outputs": [
        {
          "internalType": "bool",
          "name": "",
          "type": "bool"
        }
      ],
      "stateMutability": "view",
      "type": "function",
      "constant": true
    },
    {
      "inputs": [
        {
          "internalType": "address",
          "name": "newOwner",
          "type": "address"
        }
      ],
      "name": "transferOwnership",
      "outputs": [],
      "stateMutability": "nonpayable",
      "type": "function"
    },
    {
      "inputs": [
        {
          "internalType": "uint256",
          "name": "",
          "type": "uint256"
        },
        {
          "internalType": "address",
          "name": "",
          "type": "address"
        }
      ],
      "name": "upVoteAddresses",
      "outputs": [
        {
          "internalType": "bool",
          "name": "",
          "type": "bool"
        }
      ],
      "stateMutability": "view",
      "type": "function",
      "constant": true
    },
    {
      "inputs": [
        {
          "internalType": "uint256",
          "name": "",
          "type": "uint256"
        }
      ],
      "name": "upVoteCount",
      "outputs": [
        {
          "internalType": "uint256",
          "name": "",
          "type": "uint256"
        }
      ],
      "stateMutability": "view",
      "type": "function",
      "constant": true
    },
    {
      "inputs": [
        {
          "internalType": "uint256",
          "name": "id",
          "type": "uint256"
        }
      ],
      "name": "uri",
      "outputs": [
        {
          "internalType": "string",
          "name": "",
          "type": "string"
        }
      ],
      "stateMutability": "view",
      "type": "function",
      "constant": true
    },
    {
      "inputs": [
        {
          "internalType": "address",
          "name": "_address",
          "type": "address"
        }
      ],
      "name": "addToBlacklist",
      "outputs": [],
      "stateMutability": "nonpayable",
      "type": "function"
    },
    {
      "inputs": [
        {
          "internalType": "address",
          "name": "_address",
          "type": "address"
        }
      ],
      "name": "removeFromBlacklist",
      "outputs": [],
      "stateMutability": "nonpayable",
      "type": "function"
    },
    {
      "inputs": [
        {
          "internalType": "address",
          "name": "_address",
          "type": "address"
        }
      ],
      "name": "addToWhitelist",
      "outputs": [],
      "stateMutability": "nonpayable",
      "type": "function"
    },
    {
      "inputs": [
        {
          "internalType": "address",
          "name": "_address",
          "type": "address"
        }
      ],
      "name": "removeFromWhitelist",
      "outputs": [],
      "stateMutability": "nonpayable",
      "type": "function"
    },
    {
      "inputs": [
        {
          "internalType": "string",
          "name": "cid",
          "type": "string"
        },
        {
          "internalType": "bytes",
          "name": "data",
          "type": "bytes"
        }
      ],
      "name": "mint",
      "outputs": [],
      "stateMutability": "nonpayable",
      "type": "function"
    },
    {
      "inputs": [
        {
          "internalType": "uint256",
          "name": "tokenID",
          "type": "uint256"
        }
      ],
      "name": "upVote",
      "outputs": [],
      "stateMutability": "nonpayable",
      "type": "function"
    },
    {
      "inputs": [
        {
          "internalType": "uint256",
          "name": "tokenID",
          "type": "uint256"
        }
      ],
      "name": "downVote",
      "outputs": [],
      "stateMutability": "nonpayable",
      "type": "function"
    }
  ],
  "bytecode": "0x6080604052600060045560646005553480156200001b57600080fd5b506040518060600160405280602281526020016200232360229139620000418162000053565b506200004d336200006c565b620001a1565b805162000068906002906020840190620000be565b5050565b600380546001600160a01b038381166001600160a01b0319831681179093556040519116919082907f8be0079c531659141344cd1fd0a4f28419497f9722a3daafe3b4186f6b6457e090600090a35050565b828054620000cc9062000164565b90600052602060002090601f016020900481019282620000f057600085556200013b565b82601f106200010b57805160ff19168380011785556200013b565b828001600101855582156200013b579182015b828111156200013b5782518255916020019190600101906200011e565b50620001499291506200014d565b5090565b5b808211156200014957600081556001016200014e565b600181811c908216806200017957607f821691505b602082108114156200019b57634e487b7160e01b600052602260045260246000fd5b50919050565b61217280620001b16000396000f3fe608060405234801561001057600080fd5b50600436106101725760003560e01c80638ab1d681116100de578063ddca3f4311610097578063ec859db511610071578063ec859db514610396578063f242432a146103a9578063f2fde38b146103bc578063ff14438f146103cf57600080fd5b8063ddca3f4314610351578063e43252d714610208578063e985e9c51461035a57600080fd5b80638ab1d6811461024e5780638da5cb5b146102b4578063a22cb465146102cf578063b28f6df6146102e2578063b79065c8146102f5578063ba1b1cd51461032357600080fd5b80634737576e116101305780634737576e1461021b5780634e1273f41461022e578063537df3b61461024e5780635781c6a7146102615780635b8e3f4a1461028c578063715018a6146102ac57600080fd5b8062fdd58e1461017757806301ffc9a71461019d5780630e89341c146101c05780631ae9392d146101e05780632eb2c2d6146101f557806344337ea114610208575b600080fd5b61018a610185366004611601565b6103ef565b6040519081526020015b60405180910390f35b6101b06101ab366004611641565b610486565b6040519015158152602001610194565b6101d36101ce366004611665565b6104d8565b60405161019491906116da565b6101f36101ee366004611665565b610519565b005b6101f3610203366004611839565b610655565b6101f36102163660046118e3565b6106ec565b6101f36102293660046118fe565b61073a565b61024161023c366004611962565b610871565b6040516101949190611a5e565b6101f361025c3660046118e3565b61099b565b61018a61026f366004611a71565b805160208183018101805160068252928201919093012091525481565b61018a61029a366004611665565b60086020526000908152604090205481565b6101f36109e6565b6003546040516001600160a01b039091168152602001610194565b6101f36102dd366004611aae565b610a1c565b6101d36102f0366004611665565b610a27565b6101b0610303366004611aea565b600a60209081526000928352604080842090915290825290205460ff1681565b6101b0610331366004611aea565b600b60209081526000928352604080842090915290825290205460ff1681565b61018a60055481565b6101b0610368366004611b16565b6001600160a01b03918216600090815260016020908152604080832093909416825291909152205460ff1690565b6101f36103a4366004611665565b610ac1565b6101f36103b7366004611b40565b610bfd565b6101f36103ca3660046118e3565b610c84565b61018a6103dd366004611665565b60096020526000908152604090205481565b60006001600160a01b0383166104605760405162461bcd60e51b815260206004820152602b60248201527f455243313135353a2062616c616e636520717565727920666f7220746865207a60448201526a65726f206164647265737360a81b60648201526084015b60405180910390fd5b506000908152602081815260408083206001600160a01b03949094168352929052205490565b60006001600160e01b03198216636cdb3d1360e11b14806104b757506001600160e01b031982166303a24d0760e21b145b806104d257506301ffc9a760e01b6001600160e01b03198316145b92915050565b60606104e382610d1f565b600083815260076020908152604091829020915161050393929101611be0565b6040516020818303038152906040529050919050565b336000908152600c602052604090205460ff16156105495760405162461bcd60e51b815260040161045790611c91565b6000818152600a60209081526040808320338452909152902054819060ff16156105855760405162461bcd60e51b815260040161045790611cee565b6000818152600b6020908152604080832033845290915290205460ff16156105bf5760405162461bcd60e51b815260040161045790611d3d565b81600081116105e05760405162461bcd60e51b815260040161045790611d8e565b6004548111156106025760405162461bcd60e51b815260040161045790611dd4565b6000838152600b602090815260408083203384528252808320805460ff1916600190811790915586845260099092529091205461063e91611e37565b600093845260096020526040909320929092555050565b6001600160a01b03851633148061067157506106718533610368565b6106d85760405162461bcd60e51b815260206004820152603260248201527f455243313135353a207472616e736665722063616c6c6572206973206e6f74206044820152711bdddb995c881b9bdc88185c1c1c9bdd995960721b6064820152608401610457565b6106e58585858585610db3565b5050505050565b6003546001600160a01b031633146107165760405162461bcd60e51b815260040161045790611e4f565b6001600160a01b03166000908152600c60205260409020805460ff19166001179055565b336000908152600c602052604090205460ff161561076a5760405162461bcd60e51b815260040161045790611c91565b60068260405161077a9190611e84565b9081526020016040518091039020546000146107e25760405162461bcd60e51b815260206004820152602160248201527f4d696e74616e676f3a20546869732063696420616c72656164792065786973746044820152607360f81b6064820152608401610457565b6004546107f0906001611e37565b6004819055604051600690610806908590611e84565b9081526040805160209281900383019020929092556004546000908152600782529190912083516108399285019061154c565b506004805460009081526008602090815260408083208390558354835260099091528120555461086d903390600184610f90565b5050565b606081518351146108d65760405162461bcd60e51b815260206004820152602960248201527f455243313135353a206163636f756e747320616e6420696473206c656e677468604482015268040dad2e6dac2e8c6d60bb1b6064820152608401610457565b6000835167ffffffffffffffff8111156108f2576108f26116ed565b60405190808252806020026020018201604052801561091b578160200160208202803683370190505b50905060005b84518110156109935761096685828151811061093f5761093f611ea0565b602002602001015185838151811061095957610959611ea0565b60200260200101516103ef565b82828151811061097857610978611ea0565b602090810291909101015261098c81611eb6565b9050610921565b509392505050565b6003546001600160a01b031633146109c55760405162461bcd60e51b815260040161045790611e4f565b6001600160a01b03166000908152600c60205260409020805460ff19169055565b6003546001600160a01b03163314610a105760405162461bcd60e51b815260040161045790611e4f565b610a1a600061109a565b565b61086d3383836110ec565b60076020526000908152604090208054610a4090611ba5565b80601f0160208091040260200160405190810160405280929190818152602001828054610a6c90611ba5565b8015610ab95780601f10610a8e57610100808354040283529160200191610ab9565b820191906000526020600020905b815481529060010190602001808311610a9c57829003601f168201915b505050505081565b336000908152600c602052604090205460ff1615610af15760405162461bcd60e51b815260040161045790611c91565b6000818152600a60209081526040808320338452909152902054819060ff1615610b2d5760405162461bcd60e51b815260040161045790611cee565b6000818152600b6020908152604080832033845290915290205460ff1615610b675760405162461bcd60e51b815260040161045790611d3d565b8160008111610b885760405162461bcd60e51b815260040161045790611d8e565b600454811115610baa5760405162461bcd60e51b815260040161045790611dd4565b6000838152600a602090815260408083203384528252808320805460ff19166001908117909155868452600890925290912054610be691611e37565b600093845260086020526040909320929092555050565b6001600160a01b038516331480610c195750610c198533610368565b610c775760405162461bcd60e51b815260206004820152602960248201527f455243313135353a2063616c6c6572206973206e6f74206f776e6572206e6f7260448201526808185c1c1c9bdd995960ba1b6064820152608401610457565b6106e585858585856111cd565b6003546001600160a01b03163314610cae5760405162461bcd60e51b815260040161045790611e4f565b6001600160a01b038116610d135760405162461bcd60e51b815260206004820152602660248201527f4f776e61626c653a206e6577206f776e657220697320746865207a65726f206160448201526564647265737360d01b6064820152608401610457565b610d1c8161109a565b50565b606060028054610d2e90611ba5565b80601f0160208091040260200160405190810160405280929190818152602001828054610d5a90611ba5565b8015610da75780601f10610d7c57610100808354040283529160200191610da7565b820191906000526020600020905b815481529060010190602001808311610d8a57829003601f168201915b50505050509050919050565b8151835114610e155760405162461bcd60e51b815260206004820152602860248201527f455243313135353a2069647320616e6420616d6f756e7473206c656e677468206044820152670dad2e6dac2e8c6d60c31b6064820152608401610457565b6001600160a01b038416610e3b5760405162461bcd60e51b815260040161045790611ed1565b3360005b8451811015610f22576000858281518110610e5c57610e5c611ea0565b602002602001015190506000858381518110610e7a57610e7a611ea0565b602090810291909101810151600084815280835260408082206001600160a01b038e168352909352919091205490915081811015610eca5760405162461bcd60e51b815260040161045790611f16565b6000838152602081815260408083206001600160a01b038e8116855292528083208585039055908b16825281208054849290610f07908490611e37565b9250508190555050505080610f1b90611eb6565b9050610e3f565b50846001600160a01b0316866001600160a01b0316826001600160a01b03167f4a39dc06d4c0dbc64b70af90fd698a233a518aa5d07e595d983b8c0526c8f7fb8787604051610f72929190611f60565b60405180910390a4610f888187878787876112ea565b505050505050565b6001600160a01b038416610ff05760405162461bcd60e51b815260206004820152602160248201527f455243313135353a206d696e7420746f20746865207a65726f206164647265736044820152607360f81b6064820152608401610457565b3361100a8160008761100188611446565b6106e588611446565b6000848152602081815260408083206001600160a01b03891684529091528120805485929061103a908490611e37565b909155505060408051858152602081018590526001600160a01b0380881692600092918516917fc3d58168c5ae7397731d063d5bbf3d657854427343f4c083240f7aacaa2d0f62910160405180910390a46106e581600087878787611491565b600380546001600160a01b038381166001600160a01b0319831681179093556040519116919082907f8be0079c531659141344cd1fd0a4f28419497f9722a3daafe3b4186f6b6457e090600090a35050565b816001600160a01b0316836001600160a01b031614156111605760405162461bcd60e51b815260206004820152602960248201527f455243313135353a2073657474696e6720617070726f76616c20737461747573604482015268103337b91039b2b63360b91b6064820152608401610457565b6001600160a01b03838116600081815260016020908152604080832094871680845294825291829020805460ff191686151590811790915591519182527f17307eab39ab6107e8899845ad3d59bd9653f200f220920489ca2b5937696c31910160405180910390a3505050565b6001600160a01b0384166111f35760405162461bcd60e51b815260040161045790611ed1565b3361120381878761100188611446565b6000848152602081815260408083206001600160a01b038a168452909152902054838110156112445760405162461bcd60e51b815260040161045790611f16565b6000858152602081815260408083206001600160a01b038b8116855292528083208785039055908816825281208054869290611281908490611e37565b909155505060408051868152602081018690526001600160a01b03808916928a821692918616917fc3d58168c5ae7397731d063d5bbf3d657854427343f4c083240f7aacaa2d0f62910160405180910390a46112e1828888888888611491565b50505050505050565b6001600160a01b0384163b15610f885760405163bc197c8160e01b81526001600160a01b0385169063bc197c819061132e9089908990889088908890600401611f8e565b6020604051808303816000875af1925050508015611369575060408051601f3d908101601f1916820190925261136691810190611fec565b60015b61141657611375612009565b806308c379a014156113af575061138a612025565b8061139557506113b1565b8060405162461bcd60e51b815260040161045791906116da565b505b60405162461bcd60e51b815260206004820152603460248201527f455243313135353a207472616e7366657220746f206e6f6e20455243313135356044820152732932b1b2b4bb32b91034b6b83632b6b2b73a32b960611b6064820152608401610457565b6001600160e01b0319811663bc197c8160e01b146112e15760405162461bcd60e51b8152600401610457906120af565b6040805160018082528183019092526060916000919060208083019080368337019050509050828160008151811061148057611480611ea0565b602090810291909101015292915050565b6001600160a01b0384163b15610f885760405163f23a6e6160e01b81526001600160a01b0385169063f23a6e61906114d590899089908890889088906004016120f7565b6020604051808303816000875af1925050508015611510575060408051601f3d908101601f1916820190925261150d91810190611fec565b60015b61151c57611375612009565b6001600160e01b0319811663f23a6e6160e01b146112e15760405162461bcd60e51b8152600401610457906120af565b82805461155890611ba5565b90600052602060002090601f01602090048101928261157a57600085556115c0565b82601f1061159357805160ff19168380011785556115c0565b828001600101855582156115c0579182015b828111156115c05782518255916020019190600101906115a5565b506115cc9291506115d0565b5090565b5b808211156115cc57600081556001016115d1565b80356001600160a01b03811681146115fc57600080fd5b919050565b6000806040838503121561161457600080fd5b61161d836115e5565b946020939093013593505050565b6001600160e01b031981168114610d1c57600080fd5b60006020828403121561165357600080fd5b813561165e8161162b565b9392505050565b60006020828403121561167757600080fd5b5035919050565b60005b83811015611699578181015183820152602001611681565b838111156116a8576000848401525b50505050565b600081518084526116c681602086016020860161167e565b601f01601f19169290920160200192915050565b60208152600061165e60208301846116ae565b634e487b7160e01b600052604160045260246000fd5b601f8201601f1916810167ffffffffffffffff81118282101715611729576117296116ed565b6040525050565b600067ffffffffffffffff82111561174a5761174a6116ed565b5060051b60200190565b600082601f83011261176557600080fd5b8135602061177282611730565b60405161177f8282611703565b83815260059390931b850182019282810191508684111561179f57600080fd5b8286015b848110156117ba57803583529183019183016117a3565b509695505050505050565b600082601f8301126117d657600080fd5b813567ffffffffffffffff8111156117f0576117f06116ed565b604051611807601f8301601f191660200182611703565b81815284602083860101111561181c57600080fd5b816020850160208301376000918101602001919091529392505050565b600080600080600060a0868803121561185157600080fd5b61185a866115e5565b9450611868602087016115e5565b9350604086013567ffffffffffffffff8082111561188557600080fd5b61189189838a01611754565b945060608801359150808211156118a757600080fd5b6118b389838a01611754565b935060808801359150808211156118c957600080fd5b506118d6888289016117c5565b9150509295509295909350565b6000602082840312156118f557600080fd5b61165e826115e5565b6000806040838503121561191157600080fd5b823567ffffffffffffffff8082111561192957600080fd5b611935868387016117c5565b9350602085013591508082111561194b57600080fd5b50611958858286016117c5565b9150509250929050565b6000806040838503121561197557600080fd5b823567ffffffffffffffff8082111561198d57600080fd5b818501915085601f8301126119a157600080fd5b813560206119ae82611730565b6040516119bb8282611703565b83815260059390931b85018201928281019150898411156119db57600080fd5b948201945b83861015611a00576119f1866115e5565b825294820194908201906119e0565b96505086013592505080821115611a1657600080fd5b5061195885828601611754565b600081518084526020808501945080840160005b83811015611a5357815187529582019590820190600101611a37565b509495945050505050565b60208152600061165e6020830184611a23565b600060208284031215611a8357600080fd5b813567ffffffffffffffff811115611a9a57600080fd5b611aa6848285016117c5565b949350505050565b60008060408385031215611ac157600080fd5b611aca836115e5565b915060208301358015158114611adf57600080fd5b809150509250929050565b60008060408385031215611afd57600080fd5b82359150611b0d602084016115e5565b90509250929050565b60008060408385031215611b2957600080fd5b611b32836115e5565b9150611b0d602084016115e5565b600080600080600060a08688031215611b5857600080fd5b611b61866115e5565b9450611b6f602087016115e5565b93506040860135925060608601359150608086013567ffffffffffffffff811115611b9957600080fd5b6118d6888289016117c5565b600181811c90821680611bb957607f821691505b60208210811415611bda57634e487b7160e01b600052602260045260246000fd5b50919050565b600083516020611bf3828583890161167e565b845491840191600090600181811c9080831680611c1157607f831692505b858310811415611c2f57634e487b7160e01b85526022600452602485fd5b808015611c435760018114611c5457611c81565b60ff19851688528388019550611c81565b60008b81526020902060005b85811015611c795781548a820152908401908801611c60565b505083880195505b50939a9950505050505050505050565b6020808252603c908201527f4d696e74616e676f236e6f74426c61636b6c69737465643a20424c41434b4c4960408201527f535445445f4144445245535345535f4152455f464f5242494444454e00000000606082015260800190565b6020808252602f908201527f4d696e74616e676f236f6e6c794e6577566f746572733a204143434f554e545f60408201526e1053149150511657d5541593d51151608a1b606082015260800190565b60208082526031908201527f4d696e74616e676f236f6e6c794e6577566f746572733a204143434f554e545f6040820152701053149150511657d113d5d39593d51151607a1b606082015260800190565b60208082526026908201527f4d696e74616e676f23746f6b656e4578697374733a20494e56414c49445f544f60408201526512d15397d25160d21b606082015260800190565b6020808252602d908201527f4d696e74616e676f23746f6b656e4578697374733a20544f4b454e5f49445f4460408201526c13d154d7d393d517d1561254d5609a1b606082015260800190565b634e487b7160e01b600052601160045260246000fd5b60008219821115611e4a57611e4a611e21565b500190565b6020808252818101527f4f776e61626c653a2063616c6c6572206973206e6f7420746865206f776e6572604082015260600190565b60008251611e9681846020870161167e565b9190910192915050565b634e487b7160e01b600052603260045260246000fd5b6000600019821415611eca57611eca611e21565b5060010190565b60208082526025908201527f455243313135353a207472616e7366657220746f20746865207a65726f206164604082015264647265737360d81b606082015260800190565b6020808252602a908201527f455243313135353a20696e73756666696369656e742062616c616e636520666f60408201526939103a3930b739b332b960b11b606082015260800190565b604081526000611f736040830185611a23565b8281036020840152611f858185611a23565b95945050505050565b6001600160a01b0386811682528516602082015260a060408201819052600090611fba90830186611a23565b8281036060840152611fcc8186611a23565b90508281036080840152611fe081856116ae565b98975050505050505050565b600060208284031215611ffe57600080fd5b815161165e8161162b565b600060033d11156120225760046000803e5060005160e01c5b90565b600060443d10156120335790565b6040516003193d81016004833e81513d67ffffffffffffffff816024840111818411171561206357505050505090565b828501915081518181111561207b5750505050505090565b843d87010160208285010111156120955750505050505090565b6120a460208286010187611703565b509095945050505050565b60208082526028908201527f455243313135353a204552433131353552656365697665722072656a656374656040820152676420746f6b656e7360c01b606082015260800190565b6001600160a01b03868116825285166020820152604081018490526060810183905260a060808201819052600090612131908301846116ae565b97965050505050505056fea26469706673582212206bbebf35a0b5db8b05a7d46e6aee6b6dbc59b276b6fbc99e4e7be5e9e032498064736f6c634300080b003368747470733a2f2f697066732e6d6f72616c69732e696f3a323035332f697066732f",
  "immutableReferences": {},
  "source": "// SPDX-License-Identifier: MIT\npragma solidity ^0.8.11;\n\nimport \"@openzeppelin/contracts/token/ERC1155/ERC1155.sol\";\nimport \"@openzeppelin/contracts/access/Ownable.sol\";\n\n/**\n * @title An ERC1155 contract for minting user generated tokens.\n * @author Riley Stephens\n * @notice This contract is intended to reference it's metadata on IPFS.\n * @dev Implements black/whitelisting and on-chain ratings.\n */\ncontract Mintango is ERC1155, Ownable {\n    // tracks the total number of minted tokens\n    uint256 private _currentTokenID = 0;\n\n    // cost of minting a token\n    uint256 public fee = 100;\n\n    // token reference maps\n    mapping(string => uint256) public idmap;\n    mapping(uint256 => string) public lookupmap;\n\n    // token properties\n    mapping(uint256 => uint256) public upVoteCount;\n    mapping(uint256 => uint256) public downVoteCount;\n\n    // stores array of addresses that up/down voted for a particular token\n    // these are used to prevent double voting\n    mapping(uint256 => mapping(address => bool)) public upVoteAddresses;\n    mapping(uint256 => mapping(address => bool)) public downVoteAddresses;\n\n    mapping(address => bool) private blacklist;\n    mapping(address => bool) private whitelist;\n\n    /**\n     * @notice Require msg.sender to not be blacklisted\n     * @dev Reverts if msg.sender is blacklisted\n     */\n    modifier noBlacklisters() {\n        require(\n            !blacklist[msg.sender],\n            \"Mintango#notBlacklisted: BLACKLISTED_ADDRESSES_ARE_FORBIDDEN\"\n        );\n        _;\n    }\n\n    /**\n     * @notice Ensure token has been minted by contract\n     * @dev Reverts if token does not exist\n     */\n    modifier tokenExists(uint256 tokenID) {\n        require(tokenID > 0, \"Mintango#tokenExists: INVALID_TOKEN_ID\");\n        require(\n            tokenID <= _currentTokenID,\n            \"Mintango#tokenExists: TOKEN_ID_DOES_NOT_EXIST\"\n        );\n        _;\n    }\n\n    /**\n     * @notice Ensure msg.sender has not voted on token\n     * @dev Reverts if msg.send has already voted on token\n     */\n    modifier onlyNewVoters(uint256 tokenID) {\n        require(\n            !upVoteAddresses[tokenID][msg.sender],\n            \"Mintango#onlyNewVoters: ACCOUNT_ALREADY_UPVOTED\"\n        );\n        require(\n            !downVoteAddresses[tokenID][msg.sender],\n            \"Mintango#onlyNewVoters: ACCOUNT_ALREADY_DOWNVOTED\"\n        );\n        _;\n    }\n\n    constructor() ERC1155(\"https://ipfs.moralis.io:2053/ipfs/\") {}\n\n    /**\n     * @notice Override ERC1155 base uri function to use IPFS CIDs instead of token ids\n     * @param id ID of token to get URI for\n     * @return Correctly formatted IPFS URI for token\n     */\n    function uri(uint256 id)\n        public\n        view\n        virtual\n        override\n        returns (string memory)\n    {\n        return string(abi.encodePacked(super.uri(id), lookupmap[id]));\n    }\n\n    /**\n     * @notice Prevent account from minting tokens and voting\n     * @param _address The address to add to the blacklist\n     */\n    function addToBlacklist(address _address) public onlyOwner {\n        blacklist[_address] = true;\n    }\n\n    /**\n     * @notice Allow account to mint tokens and vote again\n     * @param _address The address to remove from the blacklist\n     */\n    function removeFromBlacklist(address _address) public onlyOwner {\n        blacklist[_address] = false;\n    }\n\n    /**\n     * @notice Exempt account from paying fee when minting tokens\n     * @param _address The address to add to the whitelist\n     */\n    function addToWhitelist(address _address) public onlyOwner {\n        blacklist[_address] = true;\n    }\n\n    /**\n     * @notice Ensure account pays fee when minting tokens again\n     * @param _address The address to remove from the whitelist\n     */\n    function removeFromWhitelist(address _address) public onlyOwner {\n        blacklist[_address] = false;\n    }\n\n    /**\n     * @notice Mint a new NFT for the msg.sender\n     * @param cid The CID of the token metadata on IPFS\n     * @param data Additional data to be stored with the token\n     */\n    function mint(string memory cid, bytes memory data) public noBlacklisters {\n        // UNCOMMENT BELOW AND ADD PAYABLE TO FUCTION DECLARATION TO ENABLE FEE\n        // if (!whitelist[msg.sender]) {\n        //      require(msg.value >= fee, \"You must pay the fee to mint a token\");\n        //      msg.sender.transfer(fee);\n        // }\n\n        // premint checks then increments the token id\n        require(idmap[cid] == 0, \"Mintango: This cid already exists\");\n        _currentTokenID = _currentTokenID + 1;\n\n        // add to reference maps\n        idmap[cid] = _currentTokenID;\n        lookupmap[_currentTokenID] = cid;\n\n        // initialize token properties\n        upVoteCount[_currentTokenID] = 0;\n        downVoteCount[_currentTokenID] = 0;\n\n        _mint(msg.sender, _currentTokenID, 1, data);\n    }\n\n    /**\n     * @notice Count msg.sender's upvote for a token\n     * @dev Only allows one vote per account per token\n     * @param tokenID The ID of the token to upvote\n     */\n    function upVote(uint256 tokenID)\n        public\n        noBlacklisters\n        onlyNewVoters(tokenID)\n        tokenExists(tokenID)\n    {\n        upVoteAddresses[tokenID][msg.sender] = true;\n        upVoteCount[tokenID] = upVoteCount[tokenID] + 1;\n    }\n\n    /**\n     * @notice Count msg.sender's downvote for a token\n     * @dev Only allows one vote per account per token\n     * @param tokenID The ID of the token to downvote\n     */\n    function downVote(uint256 tokenID)\n        public\n        noBlacklisters\n        onlyNewVoters(tokenID)\n        tokenExists(tokenID)\n    {\n        downVoteAddresses[tokenID][msg.sender] = true;\n        downVoteCount[tokenID] = downVoteCount[tokenID] + 1;\n    }\n}\n",
  "sourcePath": "/Users/rileystephens/Development/Crypto/mintango/Truffle/contracts/Mintango/Mintango.sol",
  "compiler": {
    "name": "solc",
    "version": "0.8.11+commit.d7f03943.Emscripten.clang"
  },
  "schemaVersion": "3.4.4",
  "updatedAt": "2022-02-13T21:06:25.882Z",
  "networkType": "ethereum",
  "devdoc": {
    "author": "Riley Stephens",
    "details": "Implements black/whitelisting and on-chain ratings.",
    "kind": "dev",
    "methods": {
      "addToBlacklist(address)": {
        "params": {
          "_address": "The address to add to the blacklist"
        }
      },
      "addToWhitelist(address)": {
        "params": {
          "_address": "The address to add to the whitelist"
        }
      },
      "balanceOf(address,uint256)": {
        "details": "See {IERC1155-balanceOf}. Requirements: - `account` cannot be the zero address."
      },
      "balanceOfBatch(address[],uint256[])": {
        "details": "See {IERC1155-balanceOfBatch}. Requirements: - `accounts` and `ids` must have the same length."
      },
      "downVote(uint256)": {
        "details": "Only allows one vote per account per token",
        "params": {
          "tokenID": "The ID of the token to downvote"
        }
      },
      "isApprovedForAll(address,address)": {
        "details": "See {IERC1155-isApprovedForAll}."
      },
      "mint(string,bytes)": {
        "params": {
          "cid": "The CID of the token metadata on IPFS",
          "data": "Additional data to be stored with the token"
        }
      },
      "owner()": {
        "details": "Returns the address of the current owner."
      },
      "removeFromBlacklist(address)": {
        "params": {
          "_address": "The address to remove from the blacklist"
        }
      },
      "removeFromWhitelist(address)": {
        "params": {
          "_address": "The address to remove from the whitelist"
        }
      },
      "renounceOwnership()": {
        "details": "Leaves the contract without owner. It will not be possible to call `onlyOwner` functions anymore. Can only be called by the current owner. NOTE: Renouncing ownership will leave the contract without an owner, thereby removing any functionality that is only available to the owner."
      },
      "safeBatchTransferFrom(address,address,uint256[],uint256[],bytes)": {
        "details": "See {IERC1155-safeBatchTransferFrom}."
      },
      "safeTransferFrom(address,address,uint256,uint256,bytes)": {
        "details": "See {IERC1155-safeTransferFrom}."
      },
      "setApprovalForAll(address,bool)": {
        "details": "See {IERC1155-setApprovalForAll}."
      },
      "supportsInterface(bytes4)": {
        "details": "See {IERC165-supportsInterface}."
      },
      "transferOwnership(address)": {
        "details": "Transfers ownership of the contract to a new account (`newOwner`). Can only be called by the current owner."
      },
      "upVote(uint256)": {
        "details": "Only allows one vote per account per token",
        "params": {
          "tokenID": "The ID of the token to upvote"
        }
      },
      "uri(uint256)": {
        "params": {
          "id": "ID of token to get URI for"
        },
        "returns": {
          "_0": "Correctly formatted IPFS URI for token"
        }
      }
    },
    "title": "An ERC1155 contract for minting user generated tokens.",
    "version": 1
  },
  "userdoc": {
    "kind": "user",
    "methods": {
      "addToBlacklist(address)": {
        "notice": "Prevent account from minting tokens and voting"
      },
      "addToWhitelist(address)": {
        "notice": "Exempt account from paying fee when minting tokens"
      },
      "downVote(uint256)": {
        "notice": "Count msg.sender's downvote for a token"
      },
      "mint(string,bytes)": {
        "notice": "Mint a new NFT for the msg.sender"
      },
      "removeFromBlacklist(address)": {
        "notice": "Allow account to mint tokens and vote again"
      },
      "removeFromWhitelist(address)": {
        "notice": "Ensure account pays fee when minting tokens again"
      },
      "upVote(uint256)": {
        "notice": "Count msg.sender's upvote for a token"
      },
      "uri(uint256)": {
        "notice": "Override ERC1155 base uri function to use IPFS CIDs instead of token ids"
      }
    },
    "notice": "This contract is intended to reference it's metadata on IPFS.",
    "version": 1
  }
}