{
  "contractName": "Mintango",
  "abi": [
    {
      "inputs": [],
      "stateMutability": "nonpayable",
      "type": "constructor"
    },
    {
      "anonymous": false,
      "inputs": [
        {
          "indexed": true,
          "internalType": "address",
          "name": "account",
          "type": "address"
        },
        {
          "indexed": true,
          "internalType": "address",
          "name": "operator",
          "type": "address"
        },
        {
          "indexed": false,
          "internalType": "bool",
          "name": "approved",
          "type": "bool"
        }
      ],
      "name": "ApprovalForAll",
      "type": "event"
    },
    {
      "anonymous": false,
      "inputs": [
        {
          "indexed": true,
          "internalType": "address",
          "name": "previousOwner",
          "type": "address"
        },
        {
          "indexed": true,
          "internalType": "address",
          "name": "newOwner",
          "type": "address"
        }
      ],
      "name": "OwnershipTransferred",
      "type": "event"
    },
    {
      "anonymous": false,
      "inputs": [
        {
          "indexed": true,
          "internalType": "address",
          "name": "operator",
          "type": "address"
        },
        {
          "indexed": true,
          "internalType": "address",
          "name": "from",
          "type": "address"
        },
        {
          "indexed": true,
          "internalType": "address",
          "name": "to",
          "type": "address"
        },
        {
          "indexed": false,
          "internalType": "uint256[]",
          "name": "ids",
          "type": "uint256[]"
        },
        {
          "indexed": false,
          "internalType": "uint256[]",
          "name": "values",
          "type": "uint256[]"
        }
      ],
      "name": "TransferBatch",
      "type": "event"
    },
    {
      "anonymous": false,
      "inputs": [
        {
          "indexed": true,
          "internalType": "address",
          "name": "operator",
          "type": "address"
        },
        {
          "indexed": true,
          "internalType": "address",
          "name": "from",
          "type": "address"
        },
        {
          "indexed": true,
          "internalType": "address",
          "name": "to",
          "type": "address"
        },
        {
          "indexed": false,
          "internalType": "uint256",
          "name": "id",
          "type": "uint256"
        },
        {
          "indexed": false,
          "internalType": "uint256",
          "name": "value",
          "type": "uint256"
        }
      ],
      "name": "TransferSingle",
      "type": "event"
    },
    {
      "anonymous": false,
      "inputs": [
        {
          "indexed": false,
          "internalType": "string",
          "name": "value",
          "type": "string"
        },
        {
          "indexed": true,
          "internalType": "uint256",
          "name": "id",
          "type": "uint256"
        }
      ],
      "name": "URI",
      "type": "event"
    },
    {
      "inputs": [
        {
          "internalType": "address",
          "name": "account",
          "type": "address"
        },
        {
          "internalType": "uint256",
          "name": "id",
          "type": "uint256"
        }
      ],
      "name": "balanceOf",
      "outputs": [
        {
          "internalType": "uint256",
          "name": "",
          "type": "uint256"
        }
      ],
      "stateMutability": "view",
      "type": "function",
      "constant": true
    },
    {
      "inputs": [
        {
          "internalType": "address[]",
          "name": "accounts",
          "type": "address[]"
        },
        {
          "internalType": "uint256[]",
          "name": "ids",
          "type": "uint256[]"
        }
      ],
      "name": "balanceOfBatch",
      "outputs": [
        {
          "internalType": "uint256[]",
          "name": "",
          "type": "uint256[]"
        }
      ],
      "stateMutability": "view",
      "type": "function",
      "constant": true
    },
    {
      "inputs": [
        {
          "internalType": "uint256",
          "name": "",
          "type": "uint256"
        },
        {
          "internalType": "address",
          "name": "",
          "type": "address"
        }
      ],
      "name": "downVoteAddresses",
      "outputs": [
        {
          "internalType": "bool",
          "name": "",
          "type": "bool"
        }
      ],
      "stateMutability": "view",
      "type": "function",
      "constant": true
    },
    {
      "inputs": [
        {
          "internalType": "uint256",
          "name": "",
          "type": "uint256"
        }
      ],
      "name": "downVoteCount",
      "outputs": [
        {
          "internalType": "uint256",
          "name": "",
          "type": "uint256"
        }
      ],
      "stateMutability": "view",
      "type": "function",
      "constant": true
    },
    {
      "inputs": [],
      "name": "fee",
      "outputs": [
        {
          "internalType": "uint256",
          "name": "",
          "type": "uint256"
        }
      ],
      "stateMutability": "view",
      "type": "function",
      "constant": true
    },
    {
      "inputs": [
        {
          "internalType": "string",
          "name": "",
          "type": "string"
        }
      ],
      "name": "idmap",
      "outputs": [
        {
          "internalType": "uint256",
          "name": "",
          "type": "uint256"
        }
      ],
      "stateMutability": "view",
      "type": "function",
      "constant": true
    },
    {
      "inputs": [
        {
          "internalType": "address",
          "name": "account",
          "type": "address"
        },
        {
          "internalType": "address",
          "name": "operator",
          "type": "address"
        }
      ],
      "name": "isApprovedForAll",
      "outputs": [
        {
          "internalType": "bool",
          "name": "",
          "type": "bool"
        }
      ],
      "stateMutability": "view",
      "type": "function",
      "constant": true
    },
    {
      "inputs": [
        {
          "internalType": "uint256",
          "name": "",
          "type": "uint256"
        }
      ],
      "name": "lookupmap",
      "outputs": [
        {
          "internalType": "string",
          "name": "",
          "type": "string"
        }
      ],
      "stateMutability": "view",
      "type": "function",
      "constant": true
    },
    {
      "inputs": [],
      "name": "owner",
      "outputs": [
        {
          "internalType": "address",
          "name": "",
          "type": "address"
        }
      ],
      "stateMutability": "view",
      "type": "function",
      "constant": true
    },
    {
      "inputs": [],
      "name": "renounceOwnership",
      "outputs": [],
      "stateMutability": "nonpayable",
      "type": "function"
    },
    {
      "inputs": [
        {
          "internalType": "address",
          "name": "from",
          "type": "address"
        },
        {
          "internalType": "address",
          "name": "to",
          "type": "address"
        },
        {
          "internalType": "uint256[]",
          "name": "ids",
          "type": "uint256[]"
        },
        {
          "internalType": "uint256[]",
          "name": "amounts",
          "type": "uint256[]"
        },
        {
          "internalType": "bytes",
          "name": "data",
          "type": "bytes"
        }
      ],
      "name": "safeBatchTransferFrom",
      "outputs": [],
      "stateMutability": "nonpayable",
      "type": "function"
    },
    {
      "inputs": [
        {
          "internalType": "address",
          "name": "from",
          "type": "address"
        },
        {
          "internalType": "address",
          "name": "to",
          "type": "address"
        },
        {
          "internalType": "uint256",
          "name": "id",
          "type": "uint256"
        },
        {
          "internalType": "uint256",
          "name": "amount",
          "type": "uint256"
        },
        {
          "internalType": "bytes",
          "name": "data",
          "type": "bytes"
        }
      ],
      "name": "safeTransferFrom",
      "outputs": [],
      "stateMutability": "nonpayable",
      "type": "function"
    },
    {
      "inputs": [
        {
          "internalType": "address",
          "name": "operator",
          "type": "address"
        },
        {
          "internalType": "bool",
          "name": "approved",
          "type": "bool"
        }
      ],
      "name": "setApprovalForAll",
      "outputs": [],
      "stateMutability": "nonpayable",
      "type": "function"
    },
    {
      "inputs": [
        {
          "internalType": "bytes4",
          "name": "interfaceId",
          "type": "bytes4"
        }
      ],
      "name": "supportsInterface",
      "outputs": [
        {
          "internalType": "bool",
          "name": "",
          "type": "bool"
        }
      ],
      "stateMutability": "view",
      "type": "function",
      "constant": true
    },
    {
      "inputs": [
        {
          "internalType": "address",
          "name": "newOwner",
          "type": "address"
        }
      ],
      "name": "transferOwnership",
      "outputs": [],
      "stateMutability": "nonpayable",
      "type": "function"
    },
    {
      "inputs": [
        {
          "internalType": "uint256",
          "name": "",
          "type": "uint256"
        },
        {
          "internalType": "address",
          "name": "",
          "type": "address"
        }
      ],
      "name": "upVoteAddresses",
      "outputs": [
        {
          "internalType": "bool",
          "name": "",
          "type": "bool"
        }
      ],
      "stateMutability": "view",
      "type": "function",
      "constant": true
    },
    {
      "inputs": [
        {
          "internalType": "uint256",
          "name": "",
          "type": "uint256"
        }
      ],
      "name": "upVoteCount",
      "outputs": [
        {
          "internalType": "uint256",
          "name": "",
          "type": "uint256"
        }
      ],
      "stateMutability": "view",
      "type": "function",
      "constant": true
    },
    {
      "inputs": [
        {
          "internalType": "uint256",
          "name": "",
          "type": "uint256"
        }
      ],
      "name": "uri",
      "outputs": [
        {
          "internalType": "string",
          "name": "",
          "type": "string"
        }
      ],
      "stateMutability": "view",
      "type": "function",
      "constant": true
    },
    {
      "inputs": [
        {
          "internalType": "address",
          "name": "_address",
          "type": "address"
        }
      ],
      "name": "addToBlacklist",
      "outputs": [],
      "stateMutability": "nonpayable",
      "type": "function"
    },
    {
      "inputs": [
        {
          "internalType": "address",
          "name": "_address",
          "type": "address"
        }
      ],
      "name": "removeFromBlacklist",
      "outputs": [],
      "stateMutability": "nonpayable",
      "type": "function"
    },
    {
      "inputs": [
        {
          "internalType": "address",
          "name": "_address",
          "type": "address"
        }
      ],
      "name": "addToWhitelist",
      "outputs": [],
      "stateMutability": "nonpayable",
      "type": "function"
    },
    {
      "inputs": [
        {
          "internalType": "address",
          "name": "_address",
          "type": "address"
        }
      ],
      "name": "removeFromWhitelist",
      "outputs": [],
      "stateMutability": "nonpayable",
      "type": "function"
    },
    {
      "inputs": [
        {
          "internalType": "string",
          "name": "cid",
          "type": "string"
        },
        {
          "internalType": "bytes",
          "name": "data",
          "type": "bytes"
        }
      ],
      "name": "mint",
      "outputs": [],
      "stateMutability": "nonpayable",
      "type": "function"
    },
    {
      "inputs": [
        {
          "internalType": "uint256",
          "name": "tokenID",
          "type": "uint256"
        }
      ],
      "name": "upVote",
      "outputs": [],
      "stateMutability": "nonpayable",
      "type": "function"
    },
    {
      "inputs": [
        {
          "internalType": "uint256",
          "name": "tokenID",
          "type": "uint256"
        }
      ],
      "name": "downVote",
      "outputs": [],
      "stateMutability": "nonpayable",
      "type": "function"
    }
  ],
  "bytecode": "0x6080604052600060045560646005553480156200001b57600080fd5b506040518060600160405280602681526020016200223160269139620000418162000053565b506200004d336200006c565b620001a1565b805162000068906002906020840190620000be565b5050565b600380546001600160a01b038381166001600160a01b0319831681179093556040519116919082907f8be0079c531659141344cd1fd0a4f28419497f9722a3daafe3b4186f6b6457e090600090a35050565b828054620000cc9062000164565b90600052602060002090601f016020900481019282620000f057600085556200013b565b82601f106200010b57805160ff19168380011785556200013b565b828001600101855582156200013b579182015b828111156200013b5782518255916020019190600101906200011e565b50620001499291506200014d565b5090565b5b808211156200014957600081556001016200014e565b600181811c908216806200017957607f821691505b602082108114156200019b57634e487b7160e01b600052602260045260246000fd5b50919050565b61208080620001b16000396000f3fe608060405234801561001057600080fd5b50600436106101725760003560e01c80638ab1d681116100de578063ddca3f4311610097578063ec859db511610071578063ec859db514610396578063f242432a146103a9578063f2fde38b146103bc578063ff14438f146103cf57600080fd5b8063ddca3f4314610351578063e43252d714610208578063e985e9c51461035a57600080fd5b80638ab1d6811461024e5780638da5cb5b146102b4578063a22cb465146102cf578063b28f6df6146102e2578063b79065c8146102f5578063ba1b1cd51461032357600080fd5b80634737576e116101305780634737576e1461021b5780634e1273f41461022e578063537df3b61461024e5780635781c6a7146102615780635b8e3f4a1461028c578063715018a6146102ac57600080fd5b8062fdd58e1461017757806301ffc9a71461019d5780630e89341c146101c05780631ae9392d146101e05780632eb2c2d6146101f557806344337ea114610208575b600080fd5b61018a6101853660046115c0565b6103ef565b6040519081526020015b60405180910390f35b6101b06101ab366004611600565b610486565b6040519015158152602001610194565b6101d36101ce366004611624565b6104d8565b6040516101949190611699565b6101f36101ee366004611624565b61056c565b005b6101f36102033660046117f8565b6106a8565b6101f36102163660046118a2565b61073f565b6101f36102293660046118bd565b61078d565b61024161023c366004611921565b6108c4565b6040516101949190611a1d565b6101f361025c3660046118a2565b6109ee565b61018a61026f366004611a30565b805160208183018101805160068252928201919093012091525481565b61018a61029a366004611624565b60086020526000908152604090205481565b6101f3610a39565b6003546040516001600160a01b039091168152602001610194565b6101f36102dd366004611a6d565b610a6f565b6101d36102f0366004611624565b610a7a565b6101b0610303366004611aa9565b600a60209081526000928352604080842090915290825290205460ff1681565b6101b0610331366004611aa9565b600b60209081526000928352604080842090915290825290205460ff1681565b61018a60055481565b6101b0610368366004611ad5565b6001600160a01b03918216600090815260016020908152604080832093909416825291909152205460ff1690565b6101f36103a4366004611624565b610b14565b6101f36103b7366004611aff565b610c50565b6101f36103ca3660046118a2565b610cd7565b61018a6103dd366004611624565b60096020526000908152604090205481565b60006001600160a01b0383166104605760405162461bcd60e51b815260206004820152602b60248201527f455243313135353a2062616c616e636520717565727920666f7220746865207a60448201526a65726f206164647265737360a81b60648201526084015b60405180910390fd5b506000908152602081815260408083206001600160a01b03949094168352929052205490565b60006001600160e01b03198216636cdb3d1360e11b14806104b757506001600160e01b031982166303a24d0760e21b145b806104d257506301ffc9a760e01b6001600160e01b03198316145b92915050565b6060600280546104e790611b64565b80601f016020809104026020016040519081016040528092919081815260200182805461051390611b64565b80156105605780601f1061053557610100808354040283529160200191610560565b820191906000526020600020905b81548152906001019060200180831161054357829003601f168201915b50505050509050919050565b336000908152600c602052604090205460ff161561059c5760405162461bcd60e51b815260040161045790611b9f565b6000818152600a60209081526040808320338452909152902054819060ff16156105d85760405162461bcd60e51b815260040161045790611bfc565b6000818152600b6020908152604080832033845290915290205460ff16156106125760405162461bcd60e51b815260040161045790611c4b565b81600081116106335760405162461bcd60e51b815260040161045790611c9c565b6004548111156106555760405162461bcd60e51b815260040161045790611ce2565b6000838152600b602090815260408083203384528252808320805460ff1916600190811790915586845260099092529091205461069191611d45565b600093845260096020526040909320929092555050565b6001600160a01b0385163314806106c457506106c48533610368565b61072b5760405162461bcd60e51b815260206004820152603260248201527f455243313135353a207472616e736665722063616c6c6572206973206e6f74206044820152711bdddb995c881b9bdc88185c1c1c9bdd995960721b6064820152608401610457565b6107388585858585610d72565b5050505050565b6003546001600160a01b031633146107695760405162461bcd60e51b815260040161045790611d5d565b6001600160a01b03166000908152600c60205260409020805460ff19166001179055565b336000908152600c602052604090205460ff16156107bd5760405162461bcd60e51b815260040161045790611b9f565b6006826040516107cd9190611d92565b9081526020016040518091039020546000146108355760405162461bcd60e51b815260206004820152602160248201527f4d696e74616e676f3a20546869732063696420616c72656164792065786973746044820152607360f81b6064820152608401610457565b600454610843906001611d45565b6004819055604051600690610859908590611d92565b90815260408051602092819003830190209290925560045460009081526007825291909120835161088c9285019061150b565b50600480546000908152600860209081526040808320839055835483526009909152812055546108c0903390600184610f4f565b5050565b606081518351146109295760405162461bcd60e51b815260206004820152602960248201527f455243313135353a206163636f756e747320616e6420696473206c656e677468604482015268040dad2e6dac2e8c6d60bb1b6064820152608401610457565b6000835167ffffffffffffffff811115610945576109456116ac565b60405190808252806020026020018201604052801561096e578160200160208202803683370190505b50905060005b84518110156109e6576109b985828151811061099257610992611dae565b60200260200101518583815181106109ac576109ac611dae565b60200260200101516103ef565b8282815181106109cb576109cb611dae565b60209081029190910101526109df81611dc4565b9050610974565b509392505050565b6003546001600160a01b03163314610a185760405162461bcd60e51b815260040161045790611d5d565b6001600160a01b03166000908152600c60205260409020805460ff19169055565b6003546001600160a01b03163314610a635760405162461bcd60e51b815260040161045790611d5d565b610a6d6000611059565b565b6108c03383836110ab565b60076020526000908152604090208054610a9390611b64565b80601f0160208091040260200160405190810160405280929190818152602001828054610abf90611b64565b8015610b0c5780601f10610ae157610100808354040283529160200191610b0c565b820191906000526020600020905b815481529060010190602001808311610aef57829003601f168201915b505050505081565b336000908152600c602052604090205460ff1615610b445760405162461bcd60e51b815260040161045790611b9f565b6000818152600a60209081526040808320338452909152902054819060ff1615610b805760405162461bcd60e51b815260040161045790611bfc565b6000818152600b6020908152604080832033845290915290205460ff1615610bba5760405162461bcd60e51b815260040161045790611c4b565b8160008111610bdb5760405162461bcd60e51b815260040161045790611c9c565b600454811115610bfd5760405162461bcd60e51b815260040161045790611ce2565b6000838152600a602090815260408083203384528252808320805460ff19166001908117909155868452600890925290912054610c3991611d45565b600093845260086020526040909320929092555050565b6001600160a01b038516331480610c6c5750610c6c8533610368565b610cca5760405162461bcd60e51b815260206004820152602960248201527f455243313135353a2063616c6c6572206973206e6f74206f776e6572206e6f7260448201526808185c1c1c9bdd995960ba1b6064820152608401610457565b610738858585858561118c565b6003546001600160a01b03163314610d015760405162461bcd60e51b815260040161045790611d5d565b6001600160a01b038116610d665760405162461bcd60e51b815260206004820152602660248201527f4f776e61626c653a206e6577206f776e657220697320746865207a65726f206160448201526564647265737360d01b6064820152608401610457565b610d6f81611059565b50565b8151835114610dd45760405162461bcd60e51b815260206004820152602860248201527f455243313135353a2069647320616e6420616d6f756e7473206c656e677468206044820152670dad2e6dac2e8c6d60c31b6064820152608401610457565b6001600160a01b038416610dfa5760405162461bcd60e51b815260040161045790611ddf565b3360005b8451811015610ee1576000858281518110610e1b57610e1b611dae565b602002602001015190506000858381518110610e3957610e39611dae565b602090810291909101810151600084815280835260408082206001600160a01b038e168352909352919091205490915081811015610e895760405162461bcd60e51b815260040161045790611e24565b6000838152602081815260408083206001600160a01b038e8116855292528083208585039055908b16825281208054849290610ec6908490611d45565b9250508190555050505080610eda90611dc4565b9050610dfe565b50846001600160a01b0316866001600160a01b0316826001600160a01b03167f4a39dc06d4c0dbc64b70af90fd698a233a518aa5d07e595d983b8c0526c8f7fb8787604051610f31929190611e6e565b60405180910390a4610f478187878787876112a9565b505050505050565b6001600160a01b038416610faf5760405162461bcd60e51b815260206004820152602160248201527f455243313135353a206d696e7420746f20746865207a65726f206164647265736044820152607360f81b6064820152608401610457565b33610fc981600087610fc088611405565b61073888611405565b6000848152602081815260408083206001600160a01b038916845290915281208054859290610ff9908490611d45565b909155505060408051858152602081018590526001600160a01b0380881692600092918516917fc3d58168c5ae7397731d063d5bbf3d657854427343f4c083240f7aacaa2d0f62910160405180910390a461073881600087878787611450565b600380546001600160a01b038381166001600160a01b0319831681179093556040519116919082907f8be0079c531659141344cd1fd0a4f28419497f9722a3daafe3b4186f6b6457e090600090a35050565b816001600160a01b0316836001600160a01b0316141561111f5760405162461bcd60e51b815260206004820152602960248201527f455243313135353a2073657474696e6720617070726f76616c20737461747573604482015268103337b91039b2b63360b91b6064820152608401610457565b6001600160a01b03838116600081815260016020908152604080832094871680845294825291829020805460ff191686151590811790915591519182527f17307eab39ab6107e8899845ad3d59bd9653f200f220920489ca2b5937696c31910160405180910390a3505050565b6001600160a01b0384166111b25760405162461bcd60e51b815260040161045790611ddf565b336111c2818787610fc088611405565b6000848152602081815260408083206001600160a01b038a168452909152902054838110156112035760405162461bcd60e51b815260040161045790611e24565b6000858152602081815260408083206001600160a01b038b8116855292528083208785039055908816825281208054869290611240908490611d45565b909155505060408051868152602081018690526001600160a01b03808916928a821692918616917fc3d58168c5ae7397731d063d5bbf3d657854427343f4c083240f7aacaa2d0f62910160405180910390a46112a0828888888888611450565b50505050505050565b6001600160a01b0384163b15610f475760405163bc197c8160e01b81526001600160a01b0385169063bc197c81906112ed9089908990889088908890600401611e9c565b6020604051808303816000875af1925050508015611328575060408051601f3d908101601f1916820190925261132591810190611efa565b60015b6113d557611334611f17565b806308c379a0141561136e5750611349611f33565b806113545750611370565b8060405162461bcd60e51b81526004016104579190611699565b505b60405162461bcd60e51b815260206004820152603460248201527f455243313135353a207472616e7366657220746f206e6f6e20455243313135356044820152732932b1b2b4bb32b91034b6b83632b6b2b73a32b960611b6064820152608401610457565b6001600160e01b0319811663bc197c8160e01b146112a05760405162461bcd60e51b815260040161045790611fbd565b6040805160018082528183019092526060916000919060208083019080368337019050509050828160008151811061143f5761143f611dae565b602090810291909101015292915050565b6001600160a01b0384163b15610f475760405163f23a6e6160e01b81526001600160a01b0385169063f23a6e61906114949089908990889088908890600401612005565b6020604051808303816000875af19250505080156114cf575060408051601f3d908101601f191682019092526114cc91810190611efa565b60015b6114db57611334611f17565b6001600160e01b0319811663f23a6e6160e01b146112a05760405162461bcd60e51b815260040161045790611fbd565b82805461151790611b64565b90600052602060002090601f016020900481019282611539576000855561157f565b82601f1061155257805160ff191683800117855561157f565b8280016001018555821561157f579182015b8281111561157f578251825591602001919060010190611564565b5061158b92915061158f565b5090565b5b8082111561158b5760008155600101611590565b80356001600160a01b03811681146115bb57600080fd5b919050565b600080604083850312156115d357600080fd5b6115dc836115a4565b946020939093013593505050565b6001600160e01b031981168114610d6f57600080fd5b60006020828403121561161257600080fd5b813561161d816115ea565b9392505050565b60006020828403121561163657600080fd5b5035919050565b60005b83811015611658578181015183820152602001611640565b83811115611667576000848401525b50505050565b6000815180845261168581602086016020860161163d565b601f01601f19169290920160200192915050565b60208152600061161d602083018461166d565b634e487b7160e01b600052604160045260246000fd5b601f8201601f1916810167ffffffffffffffff811182821017156116e8576116e86116ac565b6040525050565b600067ffffffffffffffff821115611709576117096116ac565b5060051b60200190565b600082601f83011261172457600080fd5b81356020611731826116ef565b60405161173e82826116c2565b83815260059390931b850182019282810191508684111561175e57600080fd5b8286015b848110156117795780358352918301918301611762565b509695505050505050565b600082601f83011261179557600080fd5b813567ffffffffffffffff8111156117af576117af6116ac565b6040516117c6601f8301601f1916602001826116c2565b8181528460208386010111156117db57600080fd5b816020850160208301376000918101602001919091529392505050565b600080600080600060a0868803121561181057600080fd5b611819866115a4565b9450611827602087016115a4565b9350604086013567ffffffffffffffff8082111561184457600080fd5b61185089838a01611713565b9450606088013591508082111561186657600080fd5b61187289838a01611713565b9350608088013591508082111561188857600080fd5b5061189588828901611784565b9150509295509295909350565b6000602082840312156118b457600080fd5b61161d826115a4565b600080604083850312156118d057600080fd5b823567ffffffffffffffff808211156118e857600080fd5b6118f486838701611784565b9350602085013591508082111561190a57600080fd5b5061191785828601611784565b9150509250929050565b6000806040838503121561193457600080fd5b823567ffffffffffffffff8082111561194c57600080fd5b818501915085601f83011261196057600080fd5b8135602061196d826116ef565b60405161197a82826116c2565b83815260059390931b850182019282810191508984111561199a57600080fd5b948201945b838610156119bf576119b0866115a4565b8252948201949082019061199f565b965050860135925050808211156119d557600080fd5b5061191785828601611713565b600081518084526020808501945080840160005b83811015611a12578151875295820195908201906001016119f6565b509495945050505050565b60208152600061161d60208301846119e2565b600060208284031215611a4257600080fd5b813567ffffffffffffffff811115611a5957600080fd5b611a6584828501611784565b949350505050565b60008060408385031215611a8057600080fd5b611a89836115a4565b915060208301358015158114611a9e57600080fd5b809150509250929050565b60008060408385031215611abc57600080fd5b82359150611acc602084016115a4565b90509250929050565b60008060408385031215611ae857600080fd5b611af1836115a4565b9150611acc602084016115a4565b600080600080600060a08688031215611b1757600080fd5b611b20866115a4565b9450611b2e602087016115a4565b93506040860135925060608601359150608086013567ffffffffffffffff811115611b5857600080fd5b61189588828901611784565b600181811c90821680611b7857607f821691505b60208210811415611b9957634e487b7160e01b600052602260045260246000fd5b50919050565b6020808252603c908201527f4d696e74616e676f236e6f74426c61636b6c69737465643a20424c41434b4c4960408201527f535445445f4144445245535345535f4152455f464f5242494444454e00000000606082015260800190565b6020808252602f908201527f4d696e74616e676f236f6e6c794e6577566f746572733a204143434f554e545f60408201526e1053149150511657d5541593d51151608a1b606082015260800190565b60208082526031908201527f4d696e74616e676f236f6e6c794e6577566f746572733a204143434f554e545f6040820152701053149150511657d113d5d39593d51151607a1b606082015260800190565b60208082526026908201527f4d696e74616e676f23746f6b656e4578697374733a20494e56414c49445f544f60408201526512d15397d25160d21b606082015260800190565b6020808252602d908201527f4d696e74616e676f23746f6b656e4578697374733a20544f4b454e5f49445f4460408201526c13d154d7d393d517d1561254d5609a1b606082015260800190565b634e487b7160e01b600052601160045260246000fd5b60008219821115611d5857611d58611d2f565b500190565b6020808252818101527f4f776e61626c653a2063616c6c6572206973206e6f7420746865206f776e6572604082015260600190565b60008251611da481846020870161163d565b9190910192915050565b634e487b7160e01b600052603260045260246000fd5b6000600019821415611dd857611dd8611d2f565b5060010190565b60208082526025908201527f455243313135353a207472616e7366657220746f20746865207a65726f206164604082015264647265737360d81b606082015260800190565b6020808252602a908201527f455243313135353a20696e73756666696369656e742062616c616e636520666f60408201526939103a3930b739b332b960b11b606082015260800190565b604081526000611e8160408301856119e2565b8281036020840152611e9381856119e2565b95945050505050565b6001600160a01b0386811682528516602082015260a060408201819052600090611ec8908301866119e2565b8281036060840152611eda81866119e2565b90508281036080840152611eee818561166d565b98975050505050505050565b600060208284031215611f0c57600080fd5b815161161d816115ea565b600060033d1115611f305760046000803e5060005160e01c5b90565b600060443d1015611f415790565b6040516003193d81016004833e81513d67ffffffffffffffff8160248401118184111715611f7157505050505090565b8285019150815181811115611f895750505050505090565b843d8701016020828501011115611fa35750505050505090565b611fb2602082860101876116c2565b509095945050505050565b60208082526028908201527f455243313135353a204552433131353552656365697665722072656a656374656040820152676420746f6b656e7360c01b606082015260800190565b6001600160a01b03868116825285166020820152604081018490526060810183905260a06080820181905260009061203f9083018461166d565b97965050505050505056fea264697066735822122055cc1376d29b2f5d5b43157b1423b86ac1c129913132b3e156f307c216973a6364736f6c634300080b003368747470733a2f2f697066732e6d6f72616c69732e696f3a323035332f697066732f7b69647d",
  "immutableReferences": {},
  "source": "// SPDX-License-Identifier: MIT\npragma solidity ^0.8.11;\n\nimport \"@openzeppelin/contracts/token/ERC1155/ERC1155.sol\";\nimport \"@openzeppelin/contracts/access/Ownable.sol\";\n\n/**\n * @title An ERC1155 contract for minting user generated tokens.\n * @author Riley Stephens\n * @notice This contract is intended to reference it's metadata on IPFS.\n * @dev Implements black/whitelisting and on-chain ratings.\n */\ncontract Mintango is ERC1155, Ownable {\n    // tracks the total number of minted tokens\n    uint256 private _currentTokenID = 0;\n\n    // cost of minting a token\n    uint256 public fee = 100;\n\n    // token reference maps\n    mapping(string => uint256) public idmap;\n    mapping(uint256 => string) public lookupmap;\n\n    // token properties\n    mapping(uint256 => uint256) public upVoteCount;\n    mapping(uint256 => uint256) public downVoteCount;\n\n    // stores array of addresses that up/down voted for a particular token\n    // these are used to prevent double voting\n    mapping(uint256 => mapping(address => bool)) public upVoteAddresses;\n    mapping(uint256 => mapping(address => bool)) public downVoteAddresses;\n\n    mapping(address => bool) private blacklist;\n    mapping(address => bool) private whitelist;\n\n    /**\n     * @notice Require msg.sender to not be blacklisted\n     * @dev Reverts if msg.sender is blacklisted\n     */\n    modifier noBlacklisters() {\n        require(\n            !blacklist[msg.sender],\n            \"Mintango#notBlacklisted: BLACKLISTED_ADDRESSES_ARE_FORBIDDEN\"\n        );\n        _;\n    }\n\n    /**\n     * @notice Ensure token has been minted by contract\n     * @dev Reverts if token does not exist\n     */\n    modifier tokenExists(uint256 tokenID) {\n        require(tokenID > 0, \"Mintango#tokenExists: INVALID_TOKEN_ID\");\n        require(\n            tokenID <= _currentTokenID,\n            \"Mintango#tokenExists: TOKEN_ID_DOES_NOT_EXIST\"\n        );\n        _;\n    }\n\n    /**\n     * @notice Ensure msg.sender has not voted on token\n     * @dev Reverts if msg.send has already voted on token\n     */\n    modifier onlyNewVoters(uint256 tokenID) {\n        require(\n            !upVoteAddresses[tokenID][msg.sender],\n            \"Mintango#onlyNewVoters: ACCOUNT_ALREADY_UPVOTED\"\n        );\n        require(\n            !downVoteAddresses[tokenID][msg.sender],\n            \"Mintango#onlyNewVoters: ACCOUNT_ALREADY_DOWNVOTED\"\n        );\n        _;\n    }\n\n    constructor() ERC1155(\"https://ipfs.moralis.io:2053/ipfs/{id}\") {}\n\n    /**\n     * @notice Prevent account from minting tokens and voting\n     * @param _address The address to add to the blacklist\n     */\n    function addToBlacklist(address _address) public onlyOwner {\n        blacklist[_address] = true;\n    }\n\n    /**\n     * @notice Allow account to mint tokens and vote again\n     * @param _address The address to remove from the blacklist\n     */\n    function removeFromBlacklist(address _address) public onlyOwner {\n        blacklist[_address] = false;\n    }\n\n    /**\n     * @notice Exempt account from paying fee when minting tokens\n     * @param _address The address to add to the whitelist\n     */\n    function addToWhitelist(address _address) public onlyOwner {\n        blacklist[_address] = true;\n    }\n\n    /**\n     * @notice Ensure account pays fee when minting tokens again\n     * @param _address The address to remove from the whitelist\n     */\n    function removeFromWhitelist(address _address) public onlyOwner {\n        blacklist[_address] = false;\n    }\n\n    /**\n     * @notice Mint a new NFT for the msg.sender\n     * @param cid The CID of the token metadata on IPFS\n     * @param data Additional data to be stored with the token\n     */\n    function mint(string memory cid, bytes memory data) public noBlacklisters {\n        // UNCOMMENT BELOW AND ADD PAYABLE TO FUCTION DECLARATION TO ENABLE FEE\n        // if (!whitelist[msg.sender]) {\n        //      require(msg.value >= fee, \"You must pay the fee to mint a token\");\n        //      msg.sender.transfer(fee);\n        // }\n\n        // premint checks then increments the token id\n        require(idmap[cid] == 0, \"Mintango: This cid already exists\");\n        _currentTokenID = _currentTokenID + 1;\n\n        // add to reference maps\n        idmap[cid] = _currentTokenID;\n        lookupmap[_currentTokenID] = cid;\n\n        // initialize token properties\n        upVoteCount[_currentTokenID] = 0;\n        downVoteCount[_currentTokenID] = 0;\n\n        _mint(msg.sender, _currentTokenID, 1, data);\n    }\n\n    /**\n     * @notice Count msg.sender's upvote for a token\n     * @dev Only allows one vote per account per token\n     * @param tokenID The ID of the token to upvote\n     */\n    function upVote(uint256 tokenID)\n        public\n        noBlacklisters\n        onlyNewVoters(tokenID)\n        tokenExists(tokenID)\n    {\n        upVoteAddresses[tokenID][msg.sender] = true;\n        upVoteCount[tokenID] = upVoteCount[tokenID] + 1;\n    }\n\n    /**\n     * @notice Count msg.sender's downvote for a token\n     * @dev Only allows one vote per account per token\n     * @param tokenID The ID of the token to downvote\n     */\n    function downVote(uint256 tokenID)\n        public\n        noBlacklisters\n        onlyNewVoters(tokenID)\n        tokenExists(tokenID)\n    {\n        downVoteAddresses[tokenID][msg.sender] = true;\n        downVoteCount[tokenID] = downVoteCount[tokenID] + 1;\n    }\n}\n",
  "sourcePath": "/Users/rileystephens/Development/Crypto/mintango/Truffle/contracts/Mintango/Mintango.sol",
  "compiler": {
    "name": "solc",
    "version": "0.8.11+commit.d7f03943.Emscripten.clang"
  },
  "schemaVersion": "3.4.4",
  "updatedAt": "2022-02-13T20:17:53.700Z",
  "networkType": "ethereum",
  "devdoc": {
    "author": "Riley Stephens",
    "details": "Implements black/whitelisting and on-chain ratings.",
    "kind": "dev",
    "methods": {
      "addToBlacklist(address)": {
        "params": {
          "_address": "The address to add to the blacklist"
        }
      },
      "addToWhitelist(address)": {
        "params": {
          "_address": "The address to add to the whitelist"
        }
      },
      "balanceOf(address,uint256)": {
        "details": "See {IERC1155-balanceOf}. Requirements: - `account` cannot be the zero address."
      },
      "balanceOfBatch(address[],uint256[])": {
        "details": "See {IERC1155-balanceOfBatch}. Requirements: - `accounts` and `ids` must have the same length."
      },
      "downVote(uint256)": {
        "details": "Only allows one vote per account per token",
        "params": {
          "tokenID": "The ID of the token to downvote"
        }
      },
      "isApprovedForAll(address,address)": {
        "details": "See {IERC1155-isApprovedForAll}."
      },
      "mint(string,bytes)": {
        "params": {
          "cid": "The CID of the token metadata on IPFS",
          "data": "Additional data to be stored with the token"
        }
      },
      "owner()": {
        "details": "Returns the address of the current owner."
      },
      "removeFromBlacklist(address)": {
        "params": {
          "_address": "The address to remove from the blacklist"
        }
      },
      "removeFromWhitelist(address)": {
        "params": {
          "_address": "The address to remove from the whitelist"
        }
      },
      "renounceOwnership()": {
        "details": "Leaves the contract without owner. It will not be possible to call `onlyOwner` functions anymore. Can only be called by the current owner. NOTE: Renouncing ownership will leave the contract without an owner, thereby removing any functionality that is only available to the owner."
      },
      "safeBatchTransferFrom(address,address,uint256[],uint256[],bytes)": {
        "details": "See {IERC1155-safeBatchTransferFrom}."
      },
      "safeTransferFrom(address,address,uint256,uint256,bytes)": {
        "details": "See {IERC1155-safeTransferFrom}."
      },
      "setApprovalForAll(address,bool)": {
        "details": "See {IERC1155-setApprovalForAll}."
      },
      "supportsInterface(bytes4)": {
        "details": "See {IERC165-supportsInterface}."
      },
      "transferOwnership(address)": {
        "details": "Transfers ownership of the contract to a new account (`newOwner`). Can only be called by the current owner."
      },
      "upVote(uint256)": {
        "details": "Only allows one vote per account per token",
        "params": {
          "tokenID": "The ID of the token to upvote"
        }
      },
      "uri(uint256)": {
        "details": "See {IERC1155MetadataURI-uri}. This implementation returns the same URI for *all* token types. It relies on the token type ID substitution mechanism https://eips.ethereum.org/EIPS/eip-1155#metadata[defined in the EIP]. Clients calling this function must replace the `\\{id\\}` substring with the actual token type ID."
      }
    },
    "title": "An ERC1155 contract for minting user generated tokens.",
    "version": 1
  },
  "userdoc": {
    "kind": "user",
    "methods": {
      "addToBlacklist(address)": {
        "notice": "Prevent account from minting tokens and voting"
      },
      "addToWhitelist(address)": {
        "notice": "Exempt account from paying fee when minting tokens"
      },
      "downVote(uint256)": {
        "notice": "Count msg.sender's downvote for a token"
      },
      "mint(string,bytes)": {
        "notice": "Mint a new NFT for the msg.sender"
      },
      "removeFromBlacklist(address)": {
        "notice": "Allow account to mint tokens and vote again"
      },
      "removeFromWhitelist(address)": {
        "notice": "Ensure account pays fee when minting tokens again"
      },
      "upVote(uint256)": {
        "notice": "Count msg.sender's upvote for a token"
      }
    },
    "notice": "This contract is intended to reference it's metadata on IPFS.",
    "version": 1
  }
}