{
  "contractName": "Mintango",
  "abi": [
    {
      "inputs": [],
      "stateMutability": "nonpayable",
      "type": "constructor"
    },
    {
      "anonymous": false,
      "inputs": [
        {
          "indexed": true,
          "internalType": "address",
          "name": "account",
          "type": "address"
        },
        {
          "indexed": true,
          "internalType": "address",
          "name": "operator",
          "type": "address"
        },
        {
          "indexed": false,
          "internalType": "bool",
          "name": "approved",
          "type": "bool"
        }
      ],
      "name": "ApprovalForAll",
      "type": "event"
    },
    {
      "anonymous": false,
      "inputs": [
        {
          "indexed": true,
          "internalType": "address",
          "name": "previousOwner",
          "type": "address"
        },
        {
          "indexed": true,
          "internalType": "address",
          "name": "newOwner",
          "type": "address"
        }
      ],
      "name": "OwnershipTransferred",
      "type": "event"
    },
    {
      "anonymous": false,
      "inputs": [
        {
          "indexed": true,
          "internalType": "address",
          "name": "operator",
          "type": "address"
        },
        {
          "indexed": true,
          "internalType": "address",
          "name": "from",
          "type": "address"
        },
        {
          "indexed": true,
          "internalType": "address",
          "name": "to",
          "type": "address"
        },
        {
          "indexed": false,
          "internalType": "uint256[]",
          "name": "ids",
          "type": "uint256[]"
        },
        {
          "indexed": false,
          "internalType": "uint256[]",
          "name": "values",
          "type": "uint256[]"
        }
      ],
      "name": "TransferBatch",
      "type": "event"
    },
    {
      "anonymous": false,
      "inputs": [
        {
          "indexed": true,
          "internalType": "address",
          "name": "operator",
          "type": "address"
        },
        {
          "indexed": true,
          "internalType": "address",
          "name": "from",
          "type": "address"
        },
        {
          "indexed": true,
          "internalType": "address",
          "name": "to",
          "type": "address"
        },
        {
          "indexed": false,
          "internalType": "uint256",
          "name": "id",
          "type": "uint256"
        },
        {
          "indexed": false,
          "internalType": "uint256",
          "name": "value",
          "type": "uint256"
        }
      ],
      "name": "TransferSingle",
      "type": "event"
    },
    {
      "anonymous": false,
      "inputs": [
        {
          "indexed": false,
          "internalType": "string",
          "name": "value",
          "type": "string"
        },
        {
          "indexed": true,
          "internalType": "uint256",
          "name": "id",
          "type": "uint256"
        }
      ],
      "name": "URI",
      "type": "event"
    },
    {
      "inputs": [
        {
          "internalType": "address",
          "name": "account",
          "type": "address"
        },
        {
          "internalType": "uint256",
          "name": "id",
          "type": "uint256"
        }
      ],
      "name": "balanceOf",
      "outputs": [
        {
          "internalType": "uint256",
          "name": "",
          "type": "uint256"
        }
      ],
      "stateMutability": "view",
      "type": "function"
    },
    {
      "inputs": [
        {
          "internalType": "address[]",
          "name": "accounts",
          "type": "address[]"
        },
        {
          "internalType": "uint256[]",
          "name": "ids",
          "type": "uint256[]"
        }
      ],
      "name": "balanceOfBatch",
      "outputs": [
        {
          "internalType": "uint256[]",
          "name": "",
          "type": "uint256[]"
        }
      ],
      "stateMutability": "view",
      "type": "function"
    },
    {
      "inputs": [
        {
          "internalType": "uint256",
          "name": "",
          "type": "uint256"
        },
        {
          "internalType": "address",
          "name": "",
          "type": "address"
        }
      ],
      "name": "downVoteAddresses",
      "outputs": [
        {
          "internalType": "bool",
          "name": "",
          "type": "bool"
        }
      ],
      "stateMutability": "view",
      "type": "function"
    },
    {
      "inputs": [
        {
          "internalType": "uint256",
          "name": "",
          "type": "uint256"
        }
      ],
      "name": "downVoteCount",
      "outputs": [
        {
          "internalType": "uint256",
          "name": "",
          "type": "uint256"
        }
      ],
      "stateMutability": "view",
      "type": "function"
    },
    {
      "inputs": [],
      "name": "fee",
      "outputs": [
        {
          "internalType": "uint256",
          "name": "",
          "type": "uint256"
        }
      ],
      "stateMutability": "view",
      "type": "function"
    },
    {
      "inputs": [
        {
          "internalType": "string",
          "name": "",
          "type": "string"
        }
      ],
      "name": "idmap",
      "outputs": [
        {
          "internalType": "uint256",
          "name": "",
          "type": "uint256"
        }
      ],
      "stateMutability": "view",
      "type": "function"
    },
    {
      "inputs": [
        {
          "internalType": "address",
          "name": "account",
          "type": "address"
        },
        {
          "internalType": "address",
          "name": "operator",
          "type": "address"
        }
      ],
      "name": "isApprovedForAll",
      "outputs": [
        {
          "internalType": "bool",
          "name": "",
          "type": "bool"
        }
      ],
      "stateMutability": "view",
      "type": "function"
    },
    {
      "inputs": [
        {
          "internalType": "uint256",
          "name": "",
          "type": "uint256"
        }
      ],
      "name": "lookupmap",
      "outputs": [
        {
          "internalType": "string",
          "name": "",
          "type": "string"
        }
      ],
      "stateMutability": "view",
      "type": "function"
    },
    {
      "inputs": [
        {
          "internalType": "uint256",
          "name": "",
          "type": "uint256"
        }
      ],
      "name": "losses",
      "outputs": [
        {
          "internalType": "uint256",
          "name": "",
          "type": "uint256"
        }
      ],
      "stateMutability": "view",
      "type": "function"
    },
    {
      "inputs": [],
      "name": "owner",
      "outputs": [
        {
          "internalType": "address",
          "name": "",
          "type": "address"
        }
      ],
      "stateMutability": "view",
      "type": "function"
    },
    {
      "inputs": [],
      "name": "renounceOwnership",
      "outputs": [],
      "stateMutability": "nonpayable",
      "type": "function"
    },
    {
      "inputs": [
        {
          "internalType": "address",
          "name": "from",
          "type": "address"
        },
        {
          "internalType": "address",
          "name": "to",
          "type": "address"
        },
        {
          "internalType": "uint256[]",
          "name": "ids",
          "type": "uint256[]"
        },
        {
          "internalType": "uint256[]",
          "name": "amounts",
          "type": "uint256[]"
        },
        {
          "internalType": "bytes",
          "name": "data",
          "type": "bytes"
        }
      ],
      "name": "safeBatchTransferFrom",
      "outputs": [],
      "stateMutability": "nonpayable",
      "type": "function"
    },
    {
      "inputs": [
        {
          "internalType": "address",
          "name": "from",
          "type": "address"
        },
        {
          "internalType": "address",
          "name": "to",
          "type": "address"
        },
        {
          "internalType": "uint256",
          "name": "id",
          "type": "uint256"
        },
        {
          "internalType": "uint256",
          "name": "amount",
          "type": "uint256"
        },
        {
          "internalType": "bytes",
          "name": "data",
          "type": "bytes"
        }
      ],
      "name": "safeTransferFrom",
      "outputs": [],
      "stateMutability": "nonpayable",
      "type": "function"
    },
    {
      "inputs": [
        {
          "internalType": "address",
          "name": "operator",
          "type": "address"
        },
        {
          "internalType": "bool",
          "name": "approved",
          "type": "bool"
        }
      ],
      "name": "setApprovalForAll",
      "outputs": [],
      "stateMutability": "nonpayable",
      "type": "function"
    },
    {
      "inputs": [
        {
          "internalType": "bytes4",
          "name": "interfaceId",
          "type": "bytes4"
        }
      ],
      "name": "supportsInterface",
      "outputs": [
        {
          "internalType": "bool",
          "name": "",
          "type": "bool"
        }
      ],
      "stateMutability": "view",
      "type": "function"
    },
    {
      "inputs": [
        {
          "internalType": "uint256",
          "name": "",
          "type": "uint256"
        }
      ],
      "name": "totalGames",
      "outputs": [
        {
          "internalType": "uint256",
          "name": "",
          "type": "uint256"
        }
      ],
      "stateMutability": "view",
      "type": "function"
    },
    {
      "inputs": [
        {
          "internalType": "address",
          "name": "newOwner",
          "type": "address"
        }
      ],
      "name": "transferOwnership",
      "outputs": [],
      "stateMutability": "nonpayable",
      "type": "function"
    },
    {
      "inputs": [
        {
          "internalType": "uint256",
          "name": "",
          "type": "uint256"
        },
        {
          "internalType": "address",
          "name": "",
          "type": "address"
        }
      ],
      "name": "upVoteAddresses",
      "outputs": [
        {
          "internalType": "bool",
          "name": "",
          "type": "bool"
        }
      ],
      "stateMutability": "view",
      "type": "function"
    },
    {
      "inputs": [
        {
          "internalType": "uint256",
          "name": "",
          "type": "uint256"
        }
      ],
      "name": "upVoteCount",
      "outputs": [
        {
          "internalType": "uint256",
          "name": "",
          "type": "uint256"
        }
      ],
      "stateMutability": "view",
      "type": "function"
    },
    {
      "inputs": [
        {
          "internalType": "uint256",
          "name": "",
          "type": "uint256"
        }
      ],
      "name": "uri",
      "outputs": [
        {
          "internalType": "string",
          "name": "",
          "type": "string"
        }
      ],
      "stateMutability": "view",
      "type": "function"
    },
    {
      "inputs": [
        {
          "internalType": "uint256",
          "name": "",
          "type": "uint256"
        }
      ],
      "name": "wins",
      "outputs": [
        {
          "internalType": "uint256",
          "name": "",
          "type": "uint256"
        }
      ],
      "stateMutability": "view",
      "type": "function"
    },
    {
      "inputs": [
        {
          "internalType": "address",
          "name": "_address",
          "type": "address"
        }
      ],
      "name": "addToBlacklist",
      "outputs": [],
      "stateMutability": "nonpayable",
      "type": "function"
    },
    {
      "inputs": [
        {
          "internalType": "address",
          "name": "_address",
          "type": "address"
        }
      ],
      "name": "addToWhitelist",
      "outputs": [],
      "stateMutability": "nonpayable",
      "type": "function"
    },
    {
      "inputs": [
        {
          "internalType": "string",
          "name": "cid",
          "type": "string"
        },
        {
          "internalType": "bytes",
          "name": "data",
          "type": "bytes"
        }
      ],
      "name": "mint",
      "outputs": [],
      "stateMutability": "nonpayable",
      "type": "function"
    },
    {
      "inputs": [
        {
          "internalType": "uint256",
          "name": "tokenID",
          "type": "uint256"
        }
      ],
      "name": "upVote",
      "outputs": [],
      "stateMutability": "nonpayable",
      "type": "function"
    },
    {
      "inputs": [
        {
          "internalType": "uint256",
          "name": "tokenID",
          "type": "uint256"
        }
      ],
      "name": "downVote",
      "outputs": [],
      "stateMutability": "nonpayable",
      "type": "function"
    },
    {
      "inputs": [
        {
          "internalType": "uint256",
          "name": "tokenID",
          "type": "uint256"
        },
        {
          "internalType": "address",
          "name": "winner",
          "type": "address"
        },
        {
          "internalType": "address",
          "name": "loser",
          "type": "address"
        }
      ],
      "name": "recordGame",
      "outputs": [],
      "stateMutability": "nonpayable",
      "type": "function"
    }
  ],
  "bytecode": "0x6080604052600060045560646005553480156200001b57600080fd5b50604051806060016040528060268152602001620023e960269139620000418162000053565b506200004d336200006c565b620001a1565b805162000068906002906020840190620000be565b5050565b600380546001600160a01b038381166001600160a01b0319831681179093556040519116919082907f8be0079c531659141344cd1fd0a4f28419497f9722a3daafe3b4186f6b6457e090600090a35050565b828054620000cc9062000164565b90600052602060002090601f016020900481019282620000f057600085556200013b565b82601f106200010b57805160ff19168380011785556200013b565b828001600101855582156200013b579182015b828111156200013b5782518255916020019190600101906200011e565b50620001499291506200014d565b5090565b5b808211156200014957600081556001016200014e565b600181811c908216806200017957607f821691505b602082108114156200019b57634e487b7160e01b600052602260045260246000fd5b50919050565b61223880620001b16000396000f3fe608060405234801561001057600080fd5b50600436106101a85760003560e01c80638da5cb5b116100f9578063ddca3f4311610097578063ec859db511610071578063ec859db51461042c578063f242432a1461043f578063f2fde38b14610452578063ff14438f1461046557600080fd5b8063ddca3f43146103e7578063e43252d71461023e578063e985e9c5146103f057600080fd5b8063b28f6df6116100d3578063b28f6df614610365578063b4f5009b14610378578063b79065c81461038b578063ba1b1cd5146103b957600080fd5b80638da5cb5b1461031757806399bb521514610332578063a22cb4651461035257600080fd5b80634737576e116101665780635b8e3f4a116101405780635b8e3f4a146102af578063715018a6146102cf5780637217ca61146102d757806380bfe883146102f757600080fd5b80634737576e146102515780634e1273f4146102645780635781c6a71461028457600080fd5b8062fdd58e146101ad57806301ffc9a7146101d35780630e89341c146101f65780631ae9392d146102165780632eb2c2d61461022b57806344337ea11461023e575b600080fd5b6101c06101bb366004611740565b610485565b6040519081526020015b60405180910390f35b6101e66101e1366004611780565b61051c565b60405190151581526020016101ca565b6102096102043660046117a4565b61056e565b6040516101ca9190611815565b6102296102243660046117a4565b610602565b005b610229610239366004611974565b61073e565b61022961024c366004611a1e565b6107d5565b61022961025f366004611a39565b610823565b610277610272366004611a9d565b610984565b6040516101ca9190611b99565b6101c0610292366004611bac565b805160208183018101805160068252928201919093012091525481565b6101c06102bd3660046117a4565b600b6020526000908152604090205481565b610229610aae565b6101c06102e53660046117a4565b600a6020526000908152604090205481565b6101c06103053660046117a4565b60086020526000908152604090205481565b6003546040516001600160a01b0390911681526020016101ca565b6101c06103403660046117a4565b60096020526000908152604090205481565b610229610360366004611be9565b610ae4565b6102096103733660046117a4565b610aef565b610229610386366004611c25565b610b89565b6101e6610399366004611c61565b600d60209081526000928352604080842090915290825290205460ff1681565b6101e66103c7366004611c61565b600e60209081526000928352604080842090915290825290205460ff1681565b6101c060055481565b6101e66103fe366004611c8d565b6001600160a01b03918216600090815260016020908152604080832093909416825291909152205460ff1690565b61022961043a3660046117a4565b610c94565b61022961044d366004611cb7565b610dd0565b610229610460366004611a1e565b610e57565b6101c06104733660046117a4565b600c6020526000908152604090205481565b60006001600160a01b0383166104f65760405162461bcd60e51b815260206004820152602b60248201527f455243313135353a2062616c616e636520717565727920666f7220746865207a60448201526a65726f206164647265737360a81b60648201526084015b60405180910390fd5b506000908152602081815260408083206001600160a01b03949094168352929052205490565b60006001600160e01b03198216636cdb3d1360e11b148061054d57506001600160e01b031982166303a24d0760e21b145b8061056857506301ffc9a760e01b6001600160e01b03198316145b92915050565b60606002805461057d90611d1c565b80601f01602080910402602001604051908101604052809291908181526020018280546105a990611d1c565b80156105f65780601f106105cb576101008083540402835291602001916105f6565b820191906000526020600020905b8154815290600101906020018083116105d957829003601f168201915b50505050509050919050565b336000908152600f602052604090205460ff16156106325760405162461bcd60e51b81526004016104ed90611d57565b6000818152600d60209081526040808320338452909152902054819060ff161561066e5760405162461bcd60e51b81526004016104ed90611db4565b6000818152600e6020908152604080832033845290915290205460ff16156106a85760405162461bcd60e51b81526004016104ed90611e03565b81600081116106c95760405162461bcd60e51b81526004016104ed90611e54565b6004548111156106eb5760405162461bcd60e51b81526004016104ed90611e9a565b6000838152600e602090815260408083203384528252808320805460ff19166001908117909155868452600c9092529091205461072791611efd565b6000938452600c6020526040909320929092555050565b6001600160a01b03851633148061075a575061075a85336103fe565b6107c15760405162461bcd60e51b815260206004820152603260248201527f455243313135353a207472616e736665722063616c6c6572206973206e6f74206044820152711bdddb995c881b9bdc88185c1c1c9bdd995960721b60648201526084016104ed565b6107ce8585858585610ef2565b5050505050565b6003546001600160a01b031633146107ff5760405162461bcd60e51b81526004016104ed90611f15565b6001600160a01b03166000908152600f60205260409020805460ff19166001179055565b336000908152600f602052604090205460ff16156108535760405162461bcd60e51b81526004016104ed90611d57565b6006826040516108639190611f4a565b9081526020016040518091039020546000146108cb5760405162461bcd60e51b815260206004820152602160248201527f4d696e74616e676f3a20546869732063696420616c72656164792065786973746044820152607360f81b60648201526084016104ed565b6004546108d9906001611efd565b60048190556040516006906108ef908590611f4a565b9081526040805160209281900383019020929092556004546000908152600782529190912083516109229285019061168b565b50600480546000908152600860209081526040808320839055835483526009825280832083905583548352600a825280832083905583548352600b825280832083905583548352600c909152812055546109809033906001846110cf565b5050565b606081518351146109e95760405162461bcd60e51b815260206004820152602960248201527f455243313135353a206163636f756e747320616e6420696473206c656e677468604482015268040dad2e6dac2e8c6d60bb1b60648201526084016104ed565b6000835167ffffffffffffffff811115610a0557610a05611828565b604051908082528060200260200182016040528015610a2e578160200160208202803683370190505b50905060005b8451811015610aa657610a79858281518110610a5257610a52611f66565b6020026020010151858381518110610a6c57610a6c611f66565b6020026020010151610485565b828281518110610a8b57610a8b611f66565b6020908102919091010152610a9f81611f7c565b9050610a34565b509392505050565b6003546001600160a01b03163314610ad85760405162461bcd60e51b81526004016104ed90611f15565b610ae260006111d9565b565b61098033838361122b565b60076020526000908152604090208054610b0890611d1c565b80601f0160208091040260200160405190810160405280929190818152602001828054610b3490611d1c565b8015610b815780601f10610b5657610100808354040283529160200191610b81565b820191906000526020600020905b815481529060010190602001808311610b6457829003601f168201915b505050505081565b336000908152600f602052604090205460ff1615610bb95760405162461bcd60e51b81526004016104ed90611d57565b8260008111610bda5760405162461bcd60e51b81526004016104ed90611e54565b600454811115610bfc5760405162461bcd60e51b81526004016104ed90611e9a565b6000848152600a6020526040902054610c16906001611efd565b6000858152600a60205260409020556001600160a01b038316331415610c6457600084815260086020526040902054610c50906001611efd565b600085815260086020526040902055610c8e565b600084815260096020526040902054610c7e906001611efd565b6000858152600960205260409020555b50505050565b336000908152600f602052604090205460ff1615610cc45760405162461bcd60e51b81526004016104ed90611d57565b6000818152600d60209081526040808320338452909152902054819060ff1615610d005760405162461bcd60e51b81526004016104ed90611db4565b6000818152600e6020908152604080832033845290915290205460ff1615610d3a5760405162461bcd60e51b81526004016104ed90611e03565b8160008111610d5b5760405162461bcd60e51b81526004016104ed90611e54565b600454811115610d7d5760405162461bcd60e51b81526004016104ed90611e9a565b6000838152600d602090815260408083203384528252808320805460ff19166001908117909155868452600b90925290912054610db991611efd565b6000938452600b6020526040909320929092555050565b6001600160a01b038516331480610dec5750610dec85336103fe565b610e4a5760405162461bcd60e51b815260206004820152602960248201527f455243313135353a2063616c6c6572206973206e6f74206f776e6572206e6f7260448201526808185c1c1c9bdd995960ba1b60648201526084016104ed565b6107ce858585858561130c565b6003546001600160a01b03163314610e815760405162461bcd60e51b81526004016104ed90611f15565b6001600160a01b038116610ee65760405162461bcd60e51b815260206004820152602660248201527f4f776e61626c653a206e6577206f776e657220697320746865207a65726f206160448201526564647265737360d01b60648201526084016104ed565b610eef816111d9565b50565b8151835114610f545760405162461bcd60e51b815260206004820152602860248201527f455243313135353a2069647320616e6420616d6f756e7473206c656e677468206044820152670dad2e6dac2e8c6d60c31b60648201526084016104ed565b6001600160a01b038416610f7a5760405162461bcd60e51b81526004016104ed90611f97565b3360005b8451811015611061576000858281518110610f9b57610f9b611f66565b602002602001015190506000858381518110610fb957610fb9611f66565b602090810291909101810151600084815280835260408082206001600160a01b038e1683529093529190912054909150818110156110095760405162461bcd60e51b81526004016104ed90611fdc565b6000838152602081815260408083206001600160a01b038e8116855292528083208585039055908b16825281208054849290611046908490611efd565b925050819055505050508061105a90611f7c565b9050610f7e565b50846001600160a01b0316866001600160a01b0316826001600160a01b03167f4a39dc06d4c0dbc64b70af90fd698a233a518aa5d07e595d983b8c0526c8f7fb87876040516110b1929190612026565b60405180910390a46110c7818787878787611429565b505050505050565b6001600160a01b03841661112f5760405162461bcd60e51b815260206004820152602160248201527f455243313135353a206d696e7420746f20746865207a65726f206164647265736044820152607360f81b60648201526084016104ed565b336111498160008761114088611585565b6107ce88611585565b6000848152602081815260408083206001600160a01b038916845290915281208054859290611179908490611efd565b909155505060408051858152602081018590526001600160a01b0380881692600092918516917fc3d58168c5ae7397731d063d5bbf3d657854427343f4c083240f7aacaa2d0f62910160405180910390a46107ce816000878787876115d0565b600380546001600160a01b038381166001600160a01b0319831681179093556040519116919082907f8be0079c531659141344cd1fd0a4f28419497f9722a3daafe3b4186f6b6457e090600090a35050565b816001600160a01b0316836001600160a01b0316141561129f5760405162461bcd60e51b815260206004820152602960248201527f455243313135353a2073657474696e6720617070726f76616c20737461747573604482015268103337b91039b2b63360b91b60648201526084016104ed565b6001600160a01b03838116600081815260016020908152604080832094871680845294825291829020805460ff191686151590811790915591519182527f17307eab39ab6107e8899845ad3d59bd9653f200f220920489ca2b5937696c31910160405180910390a3505050565b6001600160a01b0384166113325760405162461bcd60e51b81526004016104ed90611f97565b3361134281878761114088611585565b6000848152602081815260408083206001600160a01b038a168452909152902054838110156113835760405162461bcd60e51b81526004016104ed90611fdc565b6000858152602081815260408083206001600160a01b038b81168552925280832087850390559088168252812080548692906113c0908490611efd565b909155505060408051868152602081018690526001600160a01b03808916928a821692918616917fc3d58168c5ae7397731d063d5bbf3d657854427343f4c083240f7aacaa2d0f62910160405180910390a46114208288888888886115d0565b50505050505050565b6001600160a01b0384163b156110c75760405163bc197c8160e01b81526001600160a01b0385169063bc197c819061146d9089908990889088908890600401612054565b6020604051808303816000875af19250505080156114a8575060408051601f3d908101601f191682019092526114a5918101906120b2565b60015b611555576114b46120cf565b806308c379a014156114ee57506114c96120eb565b806114d457506114f0565b8060405162461bcd60e51b81526004016104ed9190611815565b505b60405162461bcd60e51b815260206004820152603460248201527f455243313135353a207472616e7366657220746f206e6f6e20455243313135356044820152732932b1b2b4bb32b91034b6b83632b6b2b73a32b960611b60648201526084016104ed565b6001600160e01b0319811663bc197c8160e01b146114205760405162461bcd60e51b81526004016104ed90612175565b604080516001808252818301909252606091600091906020808301908036833701905050905082816000815181106115bf576115bf611f66565b602090810291909101015292915050565b6001600160a01b0384163b156110c75760405163f23a6e6160e01b81526001600160a01b0385169063f23a6e619061161490899089908890889088906004016121bd565b6020604051808303816000875af192505050801561164f575060408051601f3d908101601f1916820190925261164c918101906120b2565b60015b61165b576114b46120cf565b6001600160e01b0319811663f23a6e6160e01b146114205760405162461bcd60e51b81526004016104ed90612175565b82805461169790611d1c565b90600052602060002090601f0160209004810192826116b957600085556116ff565b82601f106116d257805160ff19168380011785556116ff565b828001600101855582156116ff579182015b828111156116ff5782518255916020019190600101906116e4565b5061170b92915061170f565b5090565b5b8082111561170b5760008155600101611710565b80356001600160a01b038116811461173b57600080fd5b919050565b6000806040838503121561175357600080fd5b61175c83611724565b946020939093013593505050565b6001600160e01b031981168114610eef57600080fd5b60006020828403121561179257600080fd5b813561179d8161176a565b9392505050565b6000602082840312156117b657600080fd5b5035919050565b60005b838110156117d85781810151838201526020016117c0565b83811115610c8e5750506000910152565b600081518084526118018160208601602086016117bd565b601f01601f19169290920160200192915050565b60208152600061179d60208301846117e9565b634e487b7160e01b600052604160045260246000fd5b601f8201601f1916810167ffffffffffffffff8111828210171561186457611864611828565b6040525050565b600067ffffffffffffffff82111561188557611885611828565b5060051b60200190565b600082601f8301126118a057600080fd5b813560206118ad8261186b565b6040516118ba828261183e565b83815260059390931b85018201928281019150868411156118da57600080fd5b8286015b848110156118f557803583529183019183016118de565b509695505050505050565b600082601f83011261191157600080fd5b813567ffffffffffffffff81111561192b5761192b611828565b604051611942601f8301601f19166020018261183e565b81815284602083860101111561195757600080fd5b816020850160208301376000918101602001919091529392505050565b600080600080600060a0868803121561198c57600080fd5b61199586611724565b94506119a360208701611724565b9350604086013567ffffffffffffffff808211156119c057600080fd5b6119cc89838a0161188f565b945060608801359150808211156119e257600080fd5b6119ee89838a0161188f565b93506080880135915080821115611a0457600080fd5b50611a1188828901611900565b9150509295509295909350565b600060208284031215611a3057600080fd5b61179d82611724565b60008060408385031215611a4c57600080fd5b823567ffffffffffffffff80821115611a6457600080fd5b611a7086838701611900565b93506020850135915080821115611a8657600080fd5b50611a9385828601611900565b9150509250929050565b60008060408385031215611ab057600080fd5b823567ffffffffffffffff80821115611ac857600080fd5b818501915085601f830112611adc57600080fd5b81356020611ae98261186b565b604051611af6828261183e565b83815260059390931b8501820192828101915089841115611b1657600080fd5b948201945b83861015611b3b57611b2c86611724565b82529482019490820190611b1b565b96505086013592505080821115611b5157600080fd5b50611a938582860161188f565b600081518084526020808501945080840160005b83811015611b8e57815187529582019590820190600101611b72565b509495945050505050565b60208152600061179d6020830184611b5e565b600060208284031215611bbe57600080fd5b813567ffffffffffffffff811115611bd557600080fd5b611be184828501611900565b949350505050565b60008060408385031215611bfc57600080fd5b611c0583611724565b915060208301358015158114611c1a57600080fd5b809150509250929050565b600080600060608486031215611c3a57600080fd5b83359250611c4a60208501611724565b9150611c5860408501611724565b90509250925092565b60008060408385031215611c7457600080fd5b82359150611c8460208401611724565b90509250929050565b60008060408385031215611ca057600080fd5b611ca983611724565b9150611c8460208401611724565b600080600080600060a08688031215611ccf57600080fd5b611cd886611724565b9450611ce660208701611724565b93506040860135925060608601359150608086013567ffffffffffffffff811115611d1057600080fd5b611a1188828901611900565b600181811c90821680611d3057607f821691505b60208210811415611d5157634e487b7160e01b600052602260045260246000fd5b50919050565b6020808252603c908201527f4d696e74616e676f236e6f74426c61636b6c69737465643a20424c41434b4c4960408201527f535445445f4144445245535345535f4152455f464f5242494444454e00000000606082015260800190565b6020808252602f908201527f4d696e74616e676f236f6e6c794e6577566f746572733a204143434f554e545f60408201526e1053149150511657d5541593d51151608a1b606082015260800190565b60208082526031908201527f4d696e74616e676f236f6e6c794e6577566f746572733a204143434f554e545f6040820152701053149150511657d113d5d39593d51151607a1b606082015260800190565b60208082526026908201527f4d696e74616e676f23746f6b656e4578697374733a20494e56414c49445f544f60408201526512d15397d25160d21b606082015260800190565b6020808252602d908201527f4d696e74616e676f23746f6b656e4578697374733a20544f4b454e5f49445f4460408201526c13d154d7d393d517d1561254d5609a1b606082015260800190565b634e487b7160e01b600052601160045260246000fd5b60008219821115611f1057611f10611ee7565b500190565b6020808252818101527f4f776e61626c653a2063616c6c6572206973206e6f7420746865206f776e6572604082015260600190565b60008251611f5c8184602087016117bd565b9190910192915050565b634e487b7160e01b600052603260045260246000fd5b6000600019821415611f9057611f90611ee7565b5060010190565b60208082526025908201527f455243313135353a207472616e7366657220746f20746865207a65726f206164604082015264647265737360d81b606082015260800190565b6020808252602a908201527f455243313135353a20696e73756666696369656e742062616c616e636520666f60408201526939103a3930b739b332b960b11b606082015260800190565b6040815260006120396040830185611b5e565b828103602084015261204b8185611b5e565b95945050505050565b6001600160a01b0386811682528516602082015260a06040820181905260009061208090830186611b5e565b82810360608401526120928186611b5e565b905082810360808401526120a681856117e9565b98975050505050505050565b6000602082840312156120c457600080fd5b815161179d8161176a565b600060033d11156120e85760046000803e5060005160e01c5b90565b600060443d10156120f95790565b6040516003193d81016004833e81513d67ffffffffffffffff816024840111818411171561212957505050505090565b82850191508151818111156121415750505050505090565b843d870101602082850101111561215b5750505050505090565b61216a6020828601018761183e565b509095945050505050565b60208082526028908201527f455243313135353a204552433131353552656365697665722072656a656374656040820152676420746f6b656e7360c01b606082015260800190565b6001600160a01b03868116825285166020820152604081018490526060810183905260a0608082018190526000906121f7908301846117e9565b97965050505050505056fea2646970667358221220210d27b61d79878af7a5f0ab49f5a58b0c23f4754841f2e74388a300fa3cc74c64736f6c634300080b003368747470733a2f2f697066732e6d6f72616c69732e696f3a323035332f697066732f7b69647d",
  "immutableReferences": {},
  "source": "// SPDX-License-Identifier: MIT\npragma solidity ^0.8.11;\n\nimport \"@openzeppelin/contracts/token/ERC1155/ERC1155.sol\";\nimport \"@openzeppelin/contracts/access/Ownable.sol\";\n\ncontract Mintango is ERC1155, Ownable {\n    // tracks the total number of minted tokens\n    uint256 private _currentTokenID = 0;\n\n    // cost of minting a token\n    uint256 public fee = 100;\n\n    // token reference maps\n    mapping(string => uint256) public idmap;\n    mapping(uint256 => string) public lookupmap;\n\n    // token properties\n    mapping(uint256 => uint256) public wins;\n    mapping(uint256 => uint256) public losses;\n    mapping(uint256 => uint256) public totalGames;\n    mapping(uint256 => uint256) public upVoteCount;\n    mapping(uint256 => uint256) public downVoteCount;\n\n    // stores array of addresses that up/down voted for a particular token\n    // these are used to prevent double voting\n    mapping(uint256 => mapping(address => bool)) public upVoteAddresses;\n    mapping(uint256 => mapping(address => bool)) public downVoteAddresses;\n\n    mapping(address => bool) private blacklist;\n    mapping(address => bool) private whitelist;\n\n    /**\n     * @dev Require msg.sender to not be blacklisted\n     */\n    modifier noBlacklisters() {\n        require(\n            !blacklist[msg.sender],\n            \"Mintango#notBlacklisted: BLACKLISTED_ADDRESSES_ARE_FORBIDDEN\"\n        );\n        _;\n    }\n\n    /**\n     * @dev Ensure token exists\n     */\n    modifier tokenExists(uint256 tokenID) {\n        require(tokenID > 0, \"Mintango#tokenExists: INVALID_TOKEN_ID\");\n        require(\n            tokenID <= _currentTokenID,\n            \"Mintango#tokenExists: TOKEN_ID_DOES_NOT_EXIST\"\n        );\n        _;\n    }\n\n    /**\n     * @dev Ensure token exists\n     */\n    modifier onlyNewVoters(uint256 tokenID) {\n        require(\n            !upVoteAddresses[tokenID][msg.sender],\n            \"Mintango#onlyNewVoters: ACCOUNT_ALREADY_UPVOTED\"\n        );\n        require(\n            !downVoteAddresses[tokenID][msg.sender],\n            \"Mintango#onlyNewVoters: ACCOUNT_ALREADY_DOWNVOTED\"\n        );\n        _;\n    }\n\n    constructor() ERC1155(\"https://ipfs.moralis.io:2053/ipfs/{id}\") {}\n\n    function addToBlacklist(address _address) public onlyOwner {\n        blacklist[_address] = true;\n    }\n\n    function addToWhitelist(address _address) public onlyOwner {\n        blacklist[_address] = true;\n    }\n\n    function mint(string memory cid, bytes memory data) public noBlacklisters {\n        // UNCOMMENT BELOW AND ADD PAYABLE TO FUCTION DECLARATION TO ENABLE FEE\n        // if (!whitelist[msg.sender]) {\n        //      require(msg.value >= fee, \"You must pay the fee to mint a token\");\n        //      msg.sender.transfer(fee);\n        // }\n\n        // premint checks then increments the token id\n        require(idmap[cid] == 0, \"Mintango: This cid already exists\");\n        _currentTokenID = _currentTokenID + 1;\n\n        // add to reference maps\n        idmap[cid] = _currentTokenID;\n        lookupmap[_currentTokenID] = cid;\n\n        // initialize token properties\n        wins[_currentTokenID] = 0;\n        losses[_currentTokenID] = 0;\n        totalGames[_currentTokenID] = 0;\n        upVoteCount[_currentTokenID] = 0;\n        downVoteCount[_currentTokenID] = 0;\n\n        _mint(msg.sender, _currentTokenID, 1, data);\n    }\n\n    function upVote(uint256 tokenID)\n        public\n        noBlacklisters\n        onlyNewVoters(tokenID)\n        tokenExists(tokenID)\n    {\n        upVoteAddresses[tokenID][msg.sender] = true;\n        upVoteCount[tokenID] = upVoteCount[tokenID] + 1;\n    }\n\n    function downVote(uint256 tokenID)\n        public\n        noBlacklisters\n        onlyNewVoters(tokenID)\n        tokenExists(tokenID)\n    {\n        downVoteAddresses[tokenID][msg.sender] = true;\n        downVoteCount[tokenID] = downVoteCount[tokenID] + 1;\n    }\n\n    function recordGame(\n        uint256 tokenID,\n        address winner,\n        address loser\n    ) public noBlacklisters tokenExists(tokenID) {\n        totalGames[tokenID] = totalGames[tokenID] + 1;\n        if (winner == msg.sender) {\n            wins[tokenID] = wins[tokenID] + 1;\n        } else {\n            losses[tokenID] = losses[tokenID] + 1;\n        }\n    }\n}\n",
  "sourcePath": "/Users/rileystephens/Development/Crypto/mintango/Truffle/contracts/Mintango/Mintango.sol",
  "compiler": {
    "name": "solc",
    "version": "0.8.11+commit.d7f03943.Emscripten.clang"
  },
  "schemaVersion": "3.4.4",
  "updatedAt": "2022-02-12T23:51:32.284Z",
  "devdoc": {
    "kind": "dev",
    "methods": {
      "balanceOf(address,uint256)": {
        "details": "See {IERC1155-balanceOf}. Requirements: - `account` cannot be the zero address."
      },
      "balanceOfBatch(address[],uint256[])": {
        "details": "See {IERC1155-balanceOfBatch}. Requirements: - `accounts` and `ids` must have the same length."
      },
      "isApprovedForAll(address,address)": {
        "details": "See {IERC1155-isApprovedForAll}."
      },
      "owner()": {
        "details": "Returns the address of the current owner."
      },
      "renounceOwnership()": {
        "details": "Leaves the contract without owner. It will not be possible to call `onlyOwner` functions anymore. Can only be called by the current owner. NOTE: Renouncing ownership will leave the contract without an owner, thereby removing any functionality that is only available to the owner."
      },
      "safeBatchTransferFrom(address,address,uint256[],uint256[],bytes)": {
        "details": "See {IERC1155-safeBatchTransferFrom}."
      },
      "safeTransferFrom(address,address,uint256,uint256,bytes)": {
        "details": "See {IERC1155-safeTransferFrom}."
      },
      "setApprovalForAll(address,bool)": {
        "details": "See {IERC1155-setApprovalForAll}."
      },
      "supportsInterface(bytes4)": {
        "details": "See {IERC165-supportsInterface}."
      },
      "transferOwnership(address)": {
        "details": "Transfers ownership of the contract to a new account (`newOwner`). Can only be called by the current owner."
      },
      "uri(uint256)": {
        "details": "See {IERC1155MetadataURI-uri}. This implementation returns the same URI for *all* token types. It relies on the token type ID substitution mechanism https://eips.ethereum.org/EIPS/eip-1155#metadata[defined in the EIP]. Clients calling this function must replace the `\\{id\\}` substring with the actual token type ID."
      }
    },
    "version": 1
  },
  "userdoc": {
    "kind": "user",
    "methods": {},
    "version": 1
  }
}